{
  "contractName": "Factory",
  "abi": [
    {
      "anonymous": false,
      "inputs": [
        {
          "indexed": false,
          "internalType": "string",
          "name": "restaurantName",
          "type": "string"
        },
        {
          "indexed": false,
          "internalType": "address",
          "name": "senderAddress",
          "type": "address"
        }
      ],
      "name": "RestaurantAdded",
      "type": "event"
    },
    {
      "anonymous": false,
      "inputs": [
        {
          "indexed": false,
          "internalType": "uint256",
          "name": "outstanding",
          "type": "uint256"
        },
        {
          "indexed": false,
          "internalType": "uint256",
          "name": "total",
          "type": "uint256"
        }
      ],
      "name": "ReturnScore",
      "type": "event"
    },
    {
      "anonymous": false,
      "inputs": [
        {
          "indexed": false,
          "internalType": "address",
          "name": "userAddress",
          "type": "address"
        },
        {
          "indexed": false,
          "internalType": "address",
          "name": "restaurantAddress",
          "type": "address"
        },
        {
          "indexed": false,
          "internalType": "string",
          "name": "reviewContent",
          "type": "string"
        }
      ],
      "name": "ReviewSubmitted",
      "type": "event"
    },
    {
      "anonymous": false,
      "inputs": [
        {
          "indexed": false,
          "internalType": "bytes32",
          "name": "tokenHash",
          "type": "bytes32"
        }
      ],
      "name": "TokenAdded",
      "type": "event"
    },
    {
      "anonymous": false,
      "inputs": [
        {
          "indexed": false,
          "internalType": "string",
          "name": "userName",
          "type": "string"
        },
        {
          "indexed": false,
          "internalType": "address",
          "name": "userAddress",
          "type": "address"
        }
      ],
      "name": "UserAdded",
      "type": "event"
    },
    {
      "constant": true,
      "inputs": [
        {
          "internalType": "address",
          "name": "",
          "type": "address"
        }
      ],
      "name": "addressToRestaurant",
      "outputs": [
        {
          "internalType": "string",
          "name": "restaurantName",
          "type": "string"
        },
        {
          "internalType": "address",
          "name": "restaurantAddress",
          "type": "address"
        },
        {
          "internalType": "bool",
          "name": "exist",
          "type": "bool"
        }
      ],
      "payable": false,
      "stateMutability": "view",
      "type": "function"
    },
    {
      "constant": true,
      "inputs": [
        {
          "internalType": "address",
          "name": "",
          "type": "address"
        }
      ],
      "name": "addressToUser",
      "outputs": [
        {
          "internalType": "string",
          "name": "userName",
          "type": "string"
        },
        {
          "internalType": "address",
          "name": "userAddress",
          "type": "address"
        },
        {
          "internalType": "uint256",
          "name": "outstandingReservations",
          "type": "uint256"
        },
        {
          "internalType": "uint256",
          "name": "totalReservations",
          "type": "uint256"
        },
        {
          "internalType": "bool",
          "name": "exist",
          "type": "bool"
        }
      ],
      "payable": false,
      "stateMutability": "view",
      "type": "function"
    },
    {
      "constant": true,
      "inputs": [
        {
          "internalType": "bytes32",
          "name": "",
          "type": "bytes32"
        }
      ],
      "name": "hashToToken",
      "outputs": [
        {
          "internalType": "string",
          "name": "restaurantName",
          "type": "string"
        },
        {
          "internalType": "address",
          "name": "restaurantAddress",
          "type": "address"
        },
        {
          "internalType": "uint256",
          "name": "dateTime",
          "type": "uint256"
        },
        {
          "internalType": "uint256",
          "name": "tableNo",
          "type": "uint256"
        },
        {
          "internalType": "uint256",
          "name": "pax",
          "type": "uint256"
        },
        {
          "internalType": "address",
          "name": "ownerAddress",
          "type": "address"
        },
        {
          "internalType": "bool",
          "name": "visited",
          "type": "bool"
        },
        {
          "internalType": "bool",
          "name": "accepted",
          "type": "bool"
        },
        {
          "internalType": "bool",
          "name": "exist",
          "type": "bool"
        }
      ],
      "payable": false,
      "stateMutability": "view",
      "type": "function"
    },
    {
      "constant": false,
      "inputs": [
        {
          "internalType": "string",
          "name": "_userName",
          "type": "string"
        }
      ],
      "name": "registerUser",
      "outputs": [
        {
          "internalType": "string",
          "name": "",
          "type": "string"
        },
        {
          "internalType": "address",
          "name": "",
          "type": "address"
        }
      ],
      "payable": false,
      "stateMutability": "nonpayable",
      "type": "function"
    },
    {
      "constant": false,
      "inputs": [
        {
          "internalType": "string",
          "name": "_restaurantName",
          "type": "string"
        }
      ],
      "name": "registerRestaurant",
      "outputs": [
        {
          "internalType": "string",
          "name": "",
          "type": "string"
        },
        {
          "internalType": "address",
          "name": "",
          "type": "address"
        }
      ],
      "payable": false,
      "stateMutability": "nonpayable",
      "type": "function"
    },
    {
      "constant": false,
      "inputs": [
        {
          "internalType": "uint256",
          "name": "_dateTime",
          "type": "uint256"
        },
        {
          "internalType": "uint256",
          "name": "_tableNo",
          "type": "uint256"
        },
        {
          "internalType": "uint256",
          "name": "_pax",
          "type": "uint256"
        }
      ],
      "name": "createReservation",
      "outputs": [
        {
          "internalType": "bytes32",
          "name": "",
          "type": "bytes32"
        }
      ],
      "payable": false,
      "stateMutability": "nonpayable",
      "type": "function"
    },
    {
      "constant": true,
      "inputs": [
        {
          "internalType": "address",
          "name": "_userAddress",
          "type": "address"
        }
      ],
      "name": "getUserReservationsAll",
      "outputs": [
        {
          "internalType": "bytes32[]",
          "name": "",
          "type": "bytes32[]"
        }
      ],
      "payable": false,
      "stateMutability": "view",
      "type": "function"
    },
    {
      "constant": true,
      "inputs": [
        {
          "internalType": "address",
          "name": "_restaurantAddress",
          "type": "address"
        }
      ],
      "name": "getRestaurantReservationsAll",
      "outputs": [
        {
          "internalType": "bytes32[]",
          "name": "",
          "type": "bytes32[]"
        }
      ],
      "payable": false,
      "stateMutability": "view",
      "type": "function"
    },
    {
      "constant": true,
      "inputs": [],
      "name": "testRetrieveRestaurant",
      "outputs": [
        {
          "internalType": "string",
          "name": "",
          "type": "string"
        },
        {
          "internalType": "address",
          "name": "",
          "type": "address"
        },
        {
          "internalType": "bool",
          "name": "",
          "type": "bool"
        }
      ],
      "payable": false,
      "stateMutability": "view",
      "type": "function"
    },
    {
      "constant": true,
      "inputs": [
        {
          "internalType": "bytes32",
          "name": "_tokenHash",
          "type": "bytes32"
        }
      ],
      "name": "testRetrieveReservation",
      "outputs": [
        {
          "internalType": "string",
          "name": "",
          "type": "string"
        },
        {
          "internalType": "address",
          "name": "",
          "type": "address"
        },
        {
          "internalType": "uint256",
          "name": "",
          "type": "uint256"
        },
        {
          "internalType": "uint256",
          "name": "",
          "type": "uint256"
        },
        {
          "internalType": "uint256",
          "name": "",
          "type": "uint256"
        },
        {
          "internalType": "address",
          "name": "",
          "type": "address"
        },
        {
          "internalType": "bool",
          "name": "",
          "type": "bool"
        },
        {
          "internalType": "bool",
          "name": "",
          "type": "bool"
        },
        {
          "internalType": "bool",
          "name": "",
          "type": "bool"
        }
      ],
      "payable": false,
      "stateMutability": "view",
      "type": "function"
    }
  ],
  "bytecode": "0x608060405234801561001057600080fd5b506119da806100206000396000f3fe608060405234801561001057600080fd5b50600436106100be5760003560e01c806375c6ef7411610076578063a49b60361161005b578063a49b603614610185578063a97606e814610198578063edf53886146101b8576100be565b806375c6ef741461014a5780638a74628514610172576100be565b80633682317b116100a75780633682317b146101035780635aa6c7dd14610116578063704f1b9414610137576100be565b80630aa0e0f1146100c35780631f7e9834146100ec575b600080fd5b6100d66100d13660046115a5565b6101dc565b6040516100e39190611731565b60405180910390f35b6100f461034c565b6040516100e3939291906117aa565b6100d66101113660046115a5565b6104ec565b6101296101243660046115e9565b610685565b6040516100e3929190611750565b6101296101453660046115e9565b610866565b61015d6101583660046115cb565b610a1c565b6040516100e3999897969594939291906117d7565b61015d6101803660046115cb565b610b07565b6100f46101933660046115a5565b610ce4565b6101ab6101a636600461161e565b610d99565b6040516100e39190611742565b6101cb6101c63660046115a5565b610ed6565b6040516100e3959493929190611862565b60606101e6611399565b6001600160a01b0383166000908152600260208181526040928390208351815460e0601f60001961010060018516150201909216959095049081018490049093028101840190945260c0840182815290928492849184018282801561028c5780601f106102615761010080835404028352916020019161028c565b820191906000526020600020905b81548152906001019060200180831161026f57829003601f168201915b505050505081526020016001820160009054906101000a90046001600160a01b03166001600160a01b03166001600160a01b0316815260200160028201548152602001600382015481526020016004820180548060200260200160405190810160405280929190818152602001828054801561032757602002820191906000526020600020905b815481526020019060010190808311610313575b50505091835250506005919091015460ff161515602090910152608001519392505050565b60606000806103596113da565b336000908152600160208181526040928390208351815460029481161561010002600019011693909304601f8101839004909202830160c090810190945260a0830182815292939092849290918491908401828280156103fa5780601f106103cf576101008083540402835291602001916103fa565b820191906000526020600020905b8154815290600101906020018083116103dd57829003601f168201915b505050918352505060018201546001600160a01b0316602080830191909152600283018054604080518285028101850182528281529401939283018282801561046257602002820191906000526020600020905b81548152602001906001019080831161044e575b50505050508152602001600482018054806020026020016040519081016040528092919081815260200182805480156104ba57602002820191906000526020600020905b8154815260200190600101908083116104a6575b50505091835250506005919091015460ff16151560209182015281519082015160809092015190969195509350915050565b60606104f66113da565b6001600160a01b0383166000908152600160208181526040928390208351815460029481161561010002600019011693909304601f8101839004909202830160c090810190945260a0830182815292939092849290918491908401828280156105a05780601f10610575576101008083540402835291602001916105a0565b820191906000526020600020905b81548152906001019060200180831161058357829003601f168201915b505050918352505060018201546001600160a01b0316602080830191909152600283018054604080518285028101850182528281529401939283018282801561060857602002820191906000526020600020905b8154815260200190600101908083116105f4575b505050505081526020016004820180548060200260200160405190810160405280929190818152602001828054801561066057602002820191906000526020600020905b81548152602001906001019080831161064c575b50505091835250506005919091015460ff161515602090910152606001519392505050565b336000908152600160205260408120600501546060919060ff16156106a957600080fd5b3360009081526002602052604090206005015460ff16156106c957600080fd5b6106d38333610f97565b6106db6113da565b336000908152600160208181526040928390208351815460029481161561010002600019011693909304601f8101839004909202830160c090810190945260a08301828152929390928492909184919084018282801561077c5780601f106107515761010080835404028352916020019161077c565b820191906000526020600020905b81548152906001019060200180831161075f57829003601f168201915b505050918352505060018201546001600160a01b031660208083019190915260028301805460408051828502810185018252828152940193928301828280156107e457602002820191906000526020600020905b8154815260200190600101908083116107d0575b505050505081526020016004820180548060200260200160405190810160405280929190818152602001828054801561083c57602002820191906000526020600020905b815481526020019060010190808311610828575b50505091835250506005919091015460ff1615156020918201528151910151909350915050915091565b336000908152600160205260408120600501546060919060ff161561088a57600080fd5b3360009081526002602052604090206005015460ff16156108aa57600080fd5b6108b483336110a0565b6108bc611399565b336000908152600260208181526040928390208351815460e0601f60001961010060018516150201909216959095049081018490049093028101840190945260c084018281529092849284918401828280156109595780601f1061092e57610100808354040283529160200191610959565b820191906000526020600020905b81548152906001019060200180831161093c57829003601f168201915b505050505081526020016001820160009054906101000a90046001600160a01b03166001600160a01b03166001600160a01b0316815260200160028201548152602001600382015481526020016004820180548060200260200160405190810160405280929190818152602001828054801561083c57602002820191906000526020600020908154815260200190600101908083116108285750505091835250506005919091015460ff1615156020918201528151910151909350915050915091565b6000602081815291815260409081902080548251601f600260001961010060018616150201909316929092049182018590048502810185019093528083529092839190830182828015610ab05780601f10610a8557610100808354040283529160200191610ab0565b820191906000526020600020905b815481529060010190602001808311610a9357829003601f168201915b505050600184015460028501546003860154600487015460059097015495966001600160a01b03938416969295509093509181169060ff600160a01b8204811691600160a81b8104821691600160b01b9091041689565b6060600080600080600080600080610b1d611414565b60008b815260208181526040918290208251815460026001821615610100026000190190911604601f810184900490930281016101409081019094526101208101838152909391928492849190840182828015610bbb5780601f10610b9057610100808354040283529160200191610bbb565b820191906000526020600020905b815481529060010190602001808311610b9e57829003601f168201915b505050505081526020016001820160009054906101000a90046001600160a01b03166001600160a01b03166001600160a01b031681526020016002820154815260200160038201548152602001600482015481526020016005820160009054906101000a90046001600160a01b03166001600160a01b03166001600160a01b031681526020016005820160149054906101000a900460ff161515151581526020016005820160159054906101000a900460ff161515151581526020016005820160169054906101000a900460ff1615151515815250509050806000015181602001518260400151836060015184608001518560a001518660c001518760e00151886101000151889850995099509950995099509950995099509950509193959799909294969850565b60016020818152600092835260409283902080548451600294821615610100026000190190911693909304601f8101839004830284018301909452838352928391830182828015610d765780601f10610d4b57610100808354040283529160200191610d76565b820191906000526020600020905b815481529060010190602001808311610d5957829003601f168201915b50505050600183015460059093015491926001600160a01b03169160ff16905083565b33600090815260016020819052604082206005015460ff16151514610dbd57600080fd5b3360009081526001602081815260409283902080548451600294821615610100026000190190911693909304601f81018390048302840183019094528383529260609291849190830182828015610e555780601f10610e2a57610100808354040283529160200191610e55565b820191906000526020600020905b815481529060010190602001808311610e3857829003601f168201915b50505050509050610e64611414565b610e718233898989611199565b9050600082338989604051602001610e8c9493929190611770565b604051602081830303815290604052805190602001209050610eae8282611206565b60049093018054600181018255600091825260209091200183905550909150505b9392505050565b600260208181526000928352604092839020805484516001821615610100026000190190911693909304601f8101839004830284018301909452838352928391830182828015610f675780601f10610f3c57610100808354040283529160200191610f67565b820191906000526020600020905b815481529060010190602001808311610f4a57829003601f168201915b5050505060018301546002840154600385015460059095015493946001600160a01b039092169390925060ff1685565b610f9f6113da565b8281526001600160a01b0382166020808301829052600160808401819052600092835281526040909120825180518493610fdd928492910190611460565b5060208281015160018301805473ffffffffffffffffffffffffffffffffffffffff19166001600160a01b039092169190911790556040830151805161102992600285019201906114de565b50606082015180516110459160048401916020909101906114de565b50608091909101516005909101805460ff19169115159190911790556040517f9657aed99bbb89a1b6110de849abb7a97a791307fcfdd65ecc4612709bed69eb906110939085908590611750565b60405180910390a1505050565b6110a8611399565b8281526001600160a01b0382166020808301829052600160a084015260009182526002815260409091208251805184936110e6928492910190611460565b5060208281015160018301805473ffffffffffffffffffffffffffffffffffffffff19166001600160a01b0390921691909117905560408301516002830155606083015160038301556080830151805161114692600485019201906114de565b5060a091909101516005909101805460ff1916911515919091179055805160208201516040517fa9f30653d8449c84b5b92a43e719ff26da48571661b3093c672cec7f62df636192611093929091611750565b6111a1611414565b6111a9611414565b505060408051610120810182528681526001600160a01b03861660208201819052918101859052606081018490526080810183905260a0810191909152600060c0820181905260e082015260016101008201525b95945050505050565b600081815260208190526040902060050154600160b01b900460ff161561122c57600080fd5b60008181526020818152604090912083518051859361124f928492910190611460565b5060208201516001820180546001600160a01b0392831673ffffffffffffffffffffffffffffffffffffffff19918216179091556040808501516002850155606085015160038501556080850151600485015560a08501516005909401805460c087015160e0880151610100909801511515600160b01b027fffffffffffffffffff00ffffffffffffffffffffffffffffffffffffffffffff981515600160a81b027fffffffffffffffffffff00ffffffffffffffffffffffffffffffffffffffffff921515600160a01b027fffffffffffffffffffffff00ffffffffffffffffffffffffffffffffffffffff9990981693909616929092179690961694909417949094169190911793909316179055517f1dedf216956bdae37b60f016d477f28ae821556f7b41fcdce47184ab025cddb89061138d908390611742565b60405180910390a15050565b6040518060c001604052806060815260200160006001600160a01b031681526020016000815260200160008152602001606081526020016000151581525090565b6040518060a001604052806060815260200160006001600160a01b0316815260200160608152602001606081526020016000151581525090565b6040805161012081018252606080825260006020830181905292820183905281018290526080810182905260a0810182905260c0810182905260e0810182905261010081019190915290565b828054600181600116156101000203166002900490600052602060002090601f016020900481019282601f106114a157805160ff19168380011785556114ce565b828001600101855582156114ce579182015b828111156114ce5782518255916020019190600101906114b3565b506114da929150611518565b5090565b8280548282559060005260206000209081019282156114ce57916020028201828111156114ce5782518255916020019190600101906114b3565b61153291905b808211156114da576000815560010161151e565b90565b803561154081611977565b92915050565b80356115408161198e565b600082601f83011261156257600080fd5b8135611575611570826118da565b6118b3565b9150808252602083016020830185838301111561159157600080fd5b61159c838284611931565b50505092915050565b6000602082840312156115b757600080fd5b60006115c38484611535565b949350505050565b6000602082840312156115dd57600080fd5b60006115c38484611546565b6000602082840312156115fb57600080fd5b813567ffffffffffffffff81111561161257600080fd5b6115c384828501611551565b60008060006060848603121561163357600080fd5b600061163f8686611546565b935050602061165086828701611546565b925050604061166186828701611546565b9150509250925092565b600061167783836116f0565b505060200190565b61168881611915565b82525050565b600061169982611908565b6116a3818561190c565b93506116ae83611902565b8060005b838110156116dc5781516116c6888261166b565b97506116d183611902565b9250506001016116b2565b509495945050505050565b61168881611920565b61168881611532565b600061170482611908565b61170e818561190c565b935061171e81856020860161193d565b6117278161196d565b9093019392505050565b60208082528101610ecf818461168e565b6020810161154082846116f0565b6040808252810161176181856116f9565b9050610ecf602083018461167f565b6080808252810161178181876116f9565b9050611790602083018661167f565b61179d60408301856116f0565b6111fd60608301846116f0565b606080825281016117bb81866116f9565b90506117ca602083018561167f565b6115c360408301846116e7565b61012080825281016117e9818c6116f9565b90506117f8602083018b61167f565b611805604083018a6116f0565b61181260608301896116f0565b61181f60808301886116f0565b61182c60a083018761167f565b61183960c08301866116e7565b61184660e08301856116e7565b6118546101008301846116e7565b9a9950505050505050505050565b60a0808252810161187381886116f9565b9050611882602083018761167f565b61188f60408301866116f0565b61189c60608301856116f0565b6118a960808301846116e7565b9695505050505050565b60405181810167ffffffffffffffff811182821017156118d257600080fd5b604052919050565b600067ffffffffffffffff8211156118f157600080fd5b506020601f91909101601f19160190565b60200190565b5190565b90815260200190565b600061154082611925565b151590565b6001600160a01b031690565b82818337506000910152565b60005b83811015611958578181015183820152602001611940565b83811115611967576000848401525b50505050565b601f01601f191690565b61198081611915565b811461198b57600080fd5b50565b6119808161153256fea365627a7a72315820c4c42e2d51b92437018b9e6dc4c52a162c60016046c54245b03aab35648c70d46c6578706572696d656e74616cf564736f6c63430005110040",
  "source": "pragma solidity >=0.5.0 <0.7.0;\r\npragma experimental ABIEncoderV2;\r\n\r\n\r\ncontract Factory{\r\n    \r\n\r\n    struct Restaurant {\r\n        string restaurantName;\r\n        address restaurantAddress;\r\n        uint[] reviewsList;\r\n        mapping (uint => Review) keyToReview;\r\n        bytes32[] reservationHashs;\r\n        bool exist;\r\n        \r\n    }\r\n\r\n\r\n    struct Review {\r\n        string reviewContent;\r\n        string writer;\r\n    }\r\n\r\n    struct ReservationToken {\r\n        string restaurantName;\r\n        address restaurantAddress;\r\n        uint256 dateTime;\r\n        uint tableNo;\r\n        uint pax;\r\n        address ownerAddress;\r\n        bool visited;\r\n        bool accepted;\r\n        bool exist;\r\n    }\r\n    \r\n    struct User {\r\n        string userName;\r\n        address userAddress;\r\n        uint256 outstandingReservations;\r\n        uint256 totalReservations;\r\n        bytes32[] reservationHashs;\r\n        bool exist;\r\n    }\r\n\r\n\r\n    mapping (bytes32 => ReservationToken) public hashToToken;\r\n    mapping (address => Restaurant) public addressToRestaurant;\r\n    mapping (address => User) public addressToUser;\r\n    \r\n    \r\n    event TokenAdded(bytes32 tokenHash);\r\n    event RestaurantAdded(string restaurantName, address senderAddress);\r\n    event UserAdded(string userName, address userAddress);\r\n    event ReviewSubmitted(address userAddress, address restaurantAddress, string reviewContent);\r\n    event ReturnScore(uint outstanding, uint total);\r\n    \r\n    \r\n    modifier onlyRestaurant() {\r\n        require(addressToRestaurant[msg.sender].exist == true);\r\n        _;\r\n    }\r\n\r\n    modifier onlyUser() {\r\n        require(addressToUser[msg.sender].exist == true);\r\n        _;\r\n    }\r\n    \r\n    \r\n    function _addRestaurant (string memory _restaurantName, address _senderAddress) private  {\r\n        Restaurant memory newRestaurant;\r\n        newRestaurant.restaurantName = _restaurantName;\r\n        newRestaurant.restaurantAddress = _senderAddress;\r\n        newRestaurant.exist = true;\r\n        addressToRestaurant[_senderAddress] = newRestaurant;\r\n        emit RestaurantAdded(_restaurantName, _senderAddress);\r\n    }\r\n\r\n    function _createReservationToken(string memory _restaurantName, address _restaurantAddress, uint256 _dateTime, uint _tableNo, uint _pax) private pure returns (ReservationToken memory) {\r\n        ReservationToken memory token = ReservationToken(_restaurantName, _restaurantAddress, _dateTime, _tableNo, _pax,  _restaurantAddress, false, false, true);\r\n        return token;\r\n    }\r\n\r\n    function _addToken(ReservationToken memory _reservationToken, bytes32 _tokenHash) private {\r\n        require(hashToToken[_tokenHash].exist == false);\r\n        hashToToken[_tokenHash] = _reservationToken;\r\n        emit TokenAdded(_tokenHash);\r\n    }\r\n    \r\n    function _addUser(string memory _userName, address _userAddress) private {\r\n        User memory newUser;\r\n        newUser.userName = _userName;\r\n        newUser.userAddress = _userAddress;\r\n        newUser.exist = true;\r\n        addressToUser[_userAddress] = newUser;\r\n        emit UserAdded(newUser.userName, newUser.userAddress);\r\n    }\r\n    \r\n    function registerUser(string memory _userName) public returns (string memory, address) {\r\n        require(addressToRestaurant[msg.sender].exist == false);\r\n        require(addressToUser[msg.sender].exist == false);\r\n        _addUser(_userName, msg.sender);\r\n        User memory newUser = addressToUser[msg.sender];\r\n        return (newUser.userName, newUser.userAddress);\r\n        \r\n    }\r\n\r\n    function registerRestaurant(string memory _restaurantName) public returns (string memory, address){\r\n        require(addressToRestaurant[msg.sender].exist == false);\r\n        require(addressToUser[msg.sender].exist == false);\r\n        _addRestaurant(_restaurantName, msg.sender);\r\n        Restaurant memory newRestaurant = addressToRestaurant[msg.sender];\r\n        return (newRestaurant.restaurantName, newRestaurant.restaurantAddress);\r\n    }\r\n\r\n    function createReservation(uint256 _dateTime, uint _tableNo, uint _pax) public onlyRestaurant() returns (bytes32) {\r\n        Restaurant storage restaurant = addressToRestaurant[msg.sender];\r\n        string memory restaurantName = restaurant.restaurantName;\r\n        ReservationToken memory reservationToken = _createReservationToken(restaurantName, msg.sender, _dateTime, _tableNo, _pax);\r\n        bytes32 tokenHash = keccak256(abi.encode(restaurantName, msg.sender, _dateTime, _tableNo));\r\n        _addToken(reservationToken, tokenHash);\r\n        restaurant.reservationHashs.push(tokenHash);\r\n        return tokenHash;\r\n    }\r\n    \r\n    function getUserReservationsAll(address _userAddress) public view returns (bytes32[] memory) {\r\n        User memory user = addressToUser[_userAddress];\r\n        bytes32[] memory reservationList = user.reservationHashs;\r\n        return reservationList;\r\n    }\r\n\r\n\r\n    function getRestaurantReservationsAll(address _restaurantAddress) public view returns (bytes32[] memory) {\r\n        Restaurant memory restaurant = addressToRestaurant[_restaurantAddress];\r\n        bytes32[] memory reservationList = restaurant.reservationHashs;\r\n        return reservationList;\r\n    }\r\n    \r\n//    function getRestaurantReservationsAccepted(address _restaurantAddress) public view returns (bytes32[] memory) {\r\n//         Restaurant memory restaurant = addressToRestaurant[_restaurantAddress];\r\n//         bytes32[] memory reservationList = restaurant.reservationHashs;\r\n//         bytes32[] memory returnList;\r\n//         uint counter = 0;\r\n//         for (uint i = 0; i<reservationList.length; i++) {\r\n//             ReservationToken memory token = hashToToken[reservationList[i]];\r\n//             if (token.accepted == true) {\r\n//                 returnList[counter] = reservationList[i];\r\n//                 counter++;\r\n//             }\r\n//         }\r\n//         return returnList;\r\n//     }\r\n    \r\n//    function getRestaurantReservationsUnaccepted(address _restaurantAddress) public view returns (bytes32[] memory) {\r\n//         Restaurant memory restaurant = addressToRestaurant[_restaurantAddress];\r\n//         bytes32[] memory reservationList = restaurant.reservationHashs;\r\n//         bytes32[] memory returnList;\r\n//         uint counter = 0;\r\n//         for (uint i = 0; i<reservationList.length; i++) {\r\n//             ReservationToken memory token = hashToToken[reservationList[i]];\r\n//             if (token.accepted == false) {\r\n//                 returnList[counter] = reservationList[i];\r\n//                 counter++;\r\n//             }\r\n//         }\r\n//         return returnList;\r\n//     }\r\n    \r\n    function testRetrieveRestaurant() public view returns (string memory, address, bool) {\r\n        Restaurant memory restaurant = addressToRestaurant[msg.sender];\r\n        return (restaurant.restaurantName, restaurant.restaurantAddress, restaurant.exist);\r\n    }\r\n    \r\n    function testRetrieveReservation(bytes32 _tokenHash) public view returns (string memory,address, uint256, uint, uint, address, bool, bool, bool) {\r\n        ReservationToken memory token = hashToToken[_tokenHash];\r\n        return (token.restaurantName, token.restaurantAddress, token.dateTime, token.tableNo, token.pax, token.ownerAddress, token.visited, token.accepted, token.exist);\r\n    }\r\n    \r\n\r\n\r\n}",
  "sourcePath": "C:\\Users\\sydel\\Desktop\\blobchain\\testing-truffle\\contracts\\Factory.sol",
  "compiler": {
    "name": "solc",
    "version": "0.5.17+commit.d19bba13.Emscripten.clang"
  },
  "schemaVersion": "3.3.3",
  "updatedAt": "2021-08-04T17:31:06.741Z",
  "networkType": "ethereum",
  "devdoc": {
    "methods": {}
  },
  "userdoc": {
    "methods": {}
  }
}