{
  "contractName": "ReservationTokenFunctions",
  "abi": [
    {
      "anonymous": false,
      "inputs": [
        {
          "indexed": true,
          "internalType": "address",
          "name": "owner",
          "type": "address"
        },
        {
          "indexed": true,
          "internalType": "address",
          "name": "approved",
          "type": "address"
        },
        {
          "indexed": true,
          "internalType": "uint256",
          "name": "tokenId",
          "type": "uint256"
        }
      ],
      "name": "Approval",
      "type": "event"
    },
    {
      "anonymous": false,
      "inputs": [
        {
          "indexed": true,
          "internalType": "address",
          "name": "owner",
          "type": "address"
        },
        {
          "indexed": true,
          "internalType": "address",
          "name": "operator",
          "type": "address"
        },
        {
          "indexed": false,
          "internalType": "bool",
          "name": "approved",
          "type": "bool"
        }
      ],
      "name": "ApprovalForAll",
      "type": "event"
    },
    {
      "anonymous": false,
      "inputs": [
        {
          "indexed": false,
          "internalType": "string",
          "name": "restaurantName",
          "type": "string"
        },
        {
          "indexed": false,
          "internalType": "address",
          "name": "senderAddress",
          "type": "address"
        }
      ],
      "name": "RestaurantAdded",
      "type": "event"
    },
    {
      "anonymous": false,
      "inputs": [
        {
          "indexed": false,
          "internalType": "uint256",
          "name": "outstanding",
          "type": "uint256"
        },
        {
          "indexed": false,
          "internalType": "uint256",
          "name": "total",
          "type": "uint256"
        }
      ],
      "name": "ReturnScore",
      "type": "event"
    },
    {
      "anonymous": false,
      "inputs": [
        {
          "indexed": false,
          "internalType": "address",
          "name": "userAddress",
          "type": "address"
        },
        {
          "indexed": false,
          "internalType": "address",
          "name": "restaurantAddress",
          "type": "address"
        },
        {
          "indexed": false,
          "internalType": "string",
          "name": "reviewContent",
          "type": "string"
        }
      ],
      "name": "ReviewSubmitted",
      "type": "event"
    },
    {
      "anonymous": false,
      "inputs": [
        {
          "indexed": false,
          "internalType": "bytes32",
          "name": "tokenHash",
          "type": "bytes32"
        }
      ],
      "name": "TokenAdded",
      "type": "event"
    },
    {
      "anonymous": false,
      "inputs": [
        {
          "indexed": true,
          "internalType": "address",
          "name": "from",
          "type": "address"
        },
        {
          "indexed": true,
          "internalType": "address",
          "name": "to",
          "type": "address"
        },
        {
          "indexed": true,
          "internalType": "uint256",
          "name": "tokenId",
          "type": "uint256"
        }
      ],
      "name": "Transfer",
      "type": "event"
    },
    {
      "anonymous": false,
      "inputs": [
        {
          "indexed": false,
          "internalType": "string",
          "name": "userName",
          "type": "string"
        },
        {
          "indexed": false,
          "internalType": "address",
          "name": "userAddress",
          "type": "address"
        }
      ],
      "name": "UserAdded",
      "type": "event"
    },
    {
      "constant": true,
      "inputs": [
        {
          "internalType": "address",
          "name": "",
          "type": "address"
        }
      ],
      "name": "addressToRestaurant",
      "outputs": [
        {
          "internalType": "string",
          "name": "restaurantName",
          "type": "string"
        },
        {
          "internalType": "address",
          "name": "restaurantAddress",
          "type": "address"
        },
        {
          "internalType": "bool",
          "name": "exist",
          "type": "bool"
        }
      ],
      "payable": false,
      "stateMutability": "view",
      "type": "function"
    },
    {
      "constant": true,
      "inputs": [
        {
          "internalType": "address",
          "name": "",
          "type": "address"
        }
      ],
      "name": "addressToUser",
      "outputs": [
        {
          "internalType": "string",
          "name": "userName",
          "type": "string"
        },
        {
          "internalType": "address",
          "name": "userAddress",
          "type": "address"
        },
        {
          "internalType": "uint256",
          "name": "outstandingReservations",
          "type": "uint256"
        },
        {
          "internalType": "uint256",
          "name": "totalReservations",
          "type": "uint256"
        },
        {
          "internalType": "bool",
          "name": "exist",
          "type": "bool"
        }
      ],
      "payable": false,
      "stateMutability": "view",
      "type": "function"
    },
    {
      "constant": false,
      "inputs": [
        {
          "internalType": "address",
          "name": "to",
          "type": "address"
        },
        {
          "internalType": "uint256",
          "name": "tokenId",
          "type": "uint256"
        }
      ],
      "name": "approve",
      "outputs": [],
      "payable": false,
      "stateMutability": "nonpayable",
      "type": "function"
    },
    {
      "constant": false,
      "inputs": [
        {
          "internalType": "uint256",
          "name": "_dateTime",
          "type": "uint256"
        },
        {
          "internalType": "uint256",
          "name": "_tableNo",
          "type": "uint256"
        },
        {
          "internalType": "uint256",
          "name": "_pax",
          "type": "uint256"
        }
      ],
      "name": "createReservation",
      "outputs": [
        {
          "internalType": "bytes32",
          "name": "",
          "type": "bytes32"
        }
      ],
      "payable": false,
      "stateMutability": "nonpayable",
      "type": "function"
    },
    {
      "constant": true,
      "inputs": [
        {
          "internalType": "uint256",
          "name": "tokenId",
          "type": "uint256"
        }
      ],
      "name": "getApproved",
      "outputs": [
        {
          "internalType": "address",
          "name": "",
          "type": "address"
        }
      ],
      "payable": false,
      "stateMutability": "view",
      "type": "function"
    },
    {
      "constant": true,
      "inputs": [
        {
          "internalType": "address",
          "name": "_restaurantAddress",
          "type": "address"
        }
      ],
      "name": "getRestaurantReservationsAll",
      "outputs": [
        {
          "internalType": "bytes32[]",
          "name": "",
          "type": "bytes32[]"
        }
      ],
      "payable": false,
      "stateMutability": "view",
      "type": "function"
    },
    {
      "constant": true,
      "inputs": [
        {
          "internalType": "address",
          "name": "_userAddress",
          "type": "address"
        }
      ],
      "name": "getUserReservationsAll",
      "outputs": [
        {
          "internalType": "bytes32[]",
          "name": "",
          "type": "bytes32[]"
        }
      ],
      "payable": false,
      "stateMutability": "view",
      "type": "function"
    },
    {
      "constant": true,
      "inputs": [
        {
          "internalType": "bytes32",
          "name": "",
          "type": "bytes32"
        }
      ],
      "name": "hashToToken",
      "outputs": [
        {
          "internalType": "string",
          "name": "restaurantName",
          "type": "string"
        },
        {
          "internalType": "address",
          "name": "restaurantAddress",
          "type": "address"
        },
        {
          "internalType": "uint256",
          "name": "dateTime",
          "type": "uint256"
        },
        {
          "internalType": "uint256",
          "name": "tableNo",
          "type": "uint256"
        },
        {
          "internalType": "uint256",
          "name": "pax",
          "type": "uint256"
        },
        {
          "internalType": "address",
          "name": "ownerAddress",
          "type": "address"
        },
        {
          "internalType": "bool",
          "name": "visited",
          "type": "bool"
        },
        {
          "internalType": "bool",
          "name": "accepted",
          "type": "bool"
        },
        {
          "internalType": "bool",
          "name": "exist",
          "type": "bool"
        }
      ],
      "payable": false,
      "stateMutability": "view",
      "type": "function"
    },
    {
      "constant": true,
      "inputs": [
        {
          "internalType": "address",
          "name": "owner",
          "type": "address"
        },
        {
          "internalType": "address",
          "name": "operator",
          "type": "address"
        }
      ],
      "name": "isApprovedForAll",
      "outputs": [
        {
          "internalType": "bool",
          "name": "",
          "type": "bool"
        }
      ],
      "payable": false,
      "stateMutability": "view",
      "type": "function"
    },
    {
      "constant": false,
      "inputs": [
        {
          "internalType": "string",
          "name": "_restaurantName",
          "type": "string"
        }
      ],
      "name": "registerRestaurant",
      "outputs": [
        {
          "internalType": "string",
          "name": "",
          "type": "string"
        },
        {
          "internalType": "address",
          "name": "",
          "type": "address"
        }
      ],
      "payable": false,
      "stateMutability": "nonpayable",
      "type": "function"
    },
    {
      "constant": false,
      "inputs": [
        {
          "internalType": "string",
          "name": "_userName",
          "type": "string"
        }
      ],
      "name": "registerUser",
      "outputs": [
        {
          "internalType": "string",
          "name": "",
          "type": "string"
        },
        {
          "internalType": "address",
          "name": "",
          "type": "address"
        }
      ],
      "payable": false,
      "stateMutability": "nonpayable",
      "type": "function"
    },
    {
      "constant": false,
      "inputs": [
        {
          "internalType": "address",
          "name": "from",
          "type": "address"
        },
        {
          "internalType": "address",
          "name": "to",
          "type": "address"
        },
        {
          "internalType": "uint256",
          "name": "tokenId",
          "type": "uint256"
        }
      ],
      "name": "safeTransferFrom",
      "outputs": [],
      "payable": false,
      "stateMutability": "nonpayable",
      "type": "function"
    },
    {
      "constant": false,
      "inputs": [
        {
          "internalType": "address",
          "name": "from",
          "type": "address"
        },
        {
          "internalType": "address",
          "name": "to",
          "type": "address"
        },
        {
          "internalType": "uint256",
          "name": "tokenId",
          "type": "uint256"
        },
        {
          "internalType": "bytes",
          "name": "_data",
          "type": "bytes"
        }
      ],
      "name": "safeTransferFrom",
      "outputs": [],
      "payable": false,
      "stateMutability": "nonpayable",
      "type": "function"
    },
    {
      "constant": false,
      "inputs": [
        {
          "internalType": "address",
          "name": "to",
          "type": "address"
        },
        {
          "internalType": "bool",
          "name": "approved",
          "type": "bool"
        }
      ],
      "name": "setApprovalForAll",
      "outputs": [],
      "payable": false,
      "stateMutability": "nonpayable",
      "type": "function"
    },
    {
      "constant": true,
      "inputs": [
        {
          "internalType": "bytes4",
          "name": "interfaceId",
          "type": "bytes4"
        }
      ],
      "name": "supportsInterface",
      "outputs": [
        {
          "internalType": "bool",
          "name": "",
          "type": "bool"
        }
      ],
      "payable": false,
      "stateMutability": "view",
      "type": "function"
    },
    {
      "constant": true,
      "inputs": [
        {
          "internalType": "bytes32",
          "name": "_tokenHash",
          "type": "bytes32"
        }
      ],
      "name": "testRetrieveReservation",
      "outputs": [
        {
          "internalType": "string",
          "name": "",
          "type": "string"
        },
        {
          "internalType": "address",
          "name": "",
          "type": "address"
        },
        {
          "internalType": "uint256",
          "name": "",
          "type": "uint256"
        },
        {
          "internalType": "uint256",
          "name": "",
          "type": "uint256"
        },
        {
          "internalType": "uint256",
          "name": "",
          "type": "uint256"
        },
        {
          "internalType": "address",
          "name": "",
          "type": "address"
        },
        {
          "internalType": "bool",
          "name": "",
          "type": "bool"
        },
        {
          "internalType": "bool",
          "name": "",
          "type": "bool"
        },
        {
          "internalType": "bool",
          "name": "",
          "type": "bool"
        }
      ],
      "payable": false,
      "stateMutability": "view",
      "type": "function"
    },
    {
      "constant": true,
      "inputs": [],
      "name": "testRetrieveRestaurant",
      "outputs": [
        {
          "internalType": "string",
          "name": "",
          "type": "string"
        },
        {
          "internalType": "address",
          "name": "",
          "type": "address"
        },
        {
          "internalType": "bool",
          "name": "",
          "type": "bool"
        }
      ],
      "payable": false,
      "stateMutability": "view",
      "type": "function"
    },
    {
      "constant": false,
      "inputs": [
        {
          "internalType": "address",
          "name": "from",
          "type": "address"
        },
        {
          "internalType": "address",
          "name": "to",
          "type": "address"
        },
        {
          "internalType": "uint256",
          "name": "tokenId",
          "type": "uint256"
        }
      ],
      "name": "transferFrom",
      "outputs": [],
      "payable": false,
      "stateMutability": "nonpayable",
      "type": "function"
    },
    {
      "constant": true,
      "inputs": [
        {
          "internalType": "address",
          "name": "_userAddress",
          "type": "address"
        }
      ],
      "name": "balanceOf",
      "outputs": [
        {
          "internalType": "uint256",
          "name": "",
          "type": "uint256"
        }
      ],
      "payable": false,
      "stateMutability": "view",
      "type": "function"
    },
    {
      "constant": true,
      "inputs": [
        {
          "internalType": "uint256",
          "name": "tokenId",
          "type": "uint256"
        }
      ],
      "name": "ownerOf",
      "outputs": [
        {
          "internalType": "address",
          "name": "",
          "type": "address"
        }
      ],
      "payable": false,
      "stateMutability": "view",
      "type": "function"
    },
    {
      "constant": true,
      "inputs": [
        {
          "internalType": "bytes32",
          "name": "_tokenId",
          "type": "bytes32"
        }
      ],
      "name": "ownerOf",
      "outputs": [
        {
          "internalType": "address",
          "name": "",
          "type": "address"
        }
      ],
      "payable": false,
      "stateMutability": "view",
      "type": "function"
    },
    {
      "constant": false,
      "inputs": [
        {
          "internalType": "bytes32",
          "name": "_reservationHash",
          "type": "bytes32"
        },
        {
          "internalType": "address",
          "name": "_userAddress",
          "type": "address"
        }
      ],
      "name": "acceptReservation",
      "outputs": [],
      "payable": false,
      "stateMutability": "nonpayable",
      "type": "function"
    },
    {
      "constant": false,
      "inputs": [
        {
          "internalType": "bytes32",
          "name": "_reservationHash",
          "type": "bytes32"
        },
        {
          "internalType": "address",
          "name": "_userAddress",
          "type": "address"
        }
      ],
      "name": "visitedRestaurant",
      "outputs": [],
      "payable": false,
      "stateMutability": "nonpayable",
      "type": "function"
    },
    {
      "constant": true,
      "inputs": [
        {
          "internalType": "address",
          "name": "_userAddress",
          "type": "address"
        }
      ],
      "name": "getUserScore",
      "outputs": [
        {
          "internalType": "uint256",
          "name": "",
          "type": "uint256"
        },
        {
          "internalType": "uint256",
          "name": "",
          "type": "uint256"
        }
      ],
      "payable": false,
      "stateMutability": "view",
      "type": "function"
    },
    {
      "constant": true,
      "inputs": [
        {
          "internalType": "bytes32",
          "name": "_reservationHash",
          "type": "bytes32"
        }
      ],
      "name": "testPrintTokenOwnership",
      "outputs": [
        {
          "internalType": "address",
          "name": "",
          "type": "address"
        }
      ],
      "payable": false,
      "stateMutability": "view",
      "type": "function"
    },
    {
      "constant": true,
      "inputs": [
        {
          "internalType": "address",
          "name": "_userAddress",
          "type": "address"
        }
      ],
      "name": "testPrintOutstandingReservations",
      "outputs": [
        {
          "internalType": "uint256",
          "name": "",
          "type": "uint256"
        }
      ],
      "payable": false,
      "stateMutability": "view",
      "type": "function"
    }
  ],
  "bytecode": "0x60806040526200001f6301ffc9a760e01b6001600160e01b036200004016565b6200003a6380ac58cd60e01b6001600160e01b036200004016565b620000c5565b6001600160e01b03198082161415620000a0576040805162461bcd60e51b815260206004820152601c60248201527f4552433136353a20696e76616c696420696e7465726661636520696400000000604482015290519081900360640190fd5b6001600160e01b0319166000908152600360205260409020805460ff19166001179055565b61330b80620000d56000396000f3fe608060405234801561001057600080fd5b50600436106101ae5760003560e01c806370a08231116100ee578063a97606e811610097578063b88d4fde11610071578063b88d4fde14610866578063e985e9c51461092c578063edf538861461095a578063f5f479a814610644576101ae565b8063a97606e8146107d2578063b34e0c47146107fb578063b6e8cdf91461083a576101ae565b80638a746285116100c85780638a74628514610761578063a22cb4651461077e578063a49b6036146107ac576101ae565b806370a082311461064457806375c6ef741461067c5780637dd56411146102f7576101ae565b80631f7e98341161015b57806342842e0e1161013557806342842e0e146104145780635aa6c7dd1461044a5780636352211e14610581578063704f1b941461059e576101ae565b80631f7e98341461031457806323b872dd146103b85780633682317b146103ee576101ae565b8063095ea7b31161018c578063095ea7b3146102555780630aa0e0f1146102815780631f645381146102f7576101ae565b806301ffc9a7146101b357806307a7324d146101ee578063081812fc1461021c575b600080fd5b6101da600480360360208110156101c957600080fd5b50356001600160e01b031916610a2a565b604080519115158252519081900360200190f35b61021a6004803603604081101561020457600080fd5b50803590602001356001600160a01b0316610a49565b005b6102396004803603602081101561023257600080fd5b5035610b2b565b604080516001600160a01b039092168252519081900360200190f35b61021a6004803603604081101561026b57600080fd5b506001600160a01b038135169060200135610b8d565b6102a76004803603602081101561029757600080fd5b50356001600160a01b0316610cb5565b60408051602080825283518183015283519192839290830191858101910280838360005b838110156102e35781810151838201526020016102cb565b505050509050019250505060405180910390f35b6102396004803603602081101561030d57600080fd5b5035610e25565b61031c610f5a565b6040518080602001846001600160a01b03166001600160a01b0316815260200183151515158152602001828103825285818151815260200191508051906020019080838360005b8381101561037b578181015183820152602001610363565b50505050905090810190601f1680156103a85780820380516001836020036101000a031916815260200191505b5094505050505060405180910390f35b61021a600480360360608110156103ce57600080fd5b506001600160a01b038135811691602081013590911690604001356110fa565b6102a76004803603602081101561040457600080fd5b50356001600160a01b0316611156565b61021a6004803603606081101561042a57600080fd5b506001600160a01b038135811691602081013590911690604001356112ef565b6104f06004803603602081101561046057600080fd5b81019060208101813564010000000081111561047b57600080fd5b82018360208201111561048d57600080fd5b803590602001918460018302840111640100000000831117156104af57600080fd5b91908080601f01602080910402602001604051908101604052809392919081815260200183838082843760009201919091525092955061130a945050505050565b6040518080602001836001600160a01b03166001600160a01b03168152602001828103825284818151815260200191508051906020019080838360005b8381101561054557818101518382015260200161052d565b50505050905090810190601f1680156105725780820380516001836020036101000a031916815260200191505b50935050505060405180910390f35b6102396004803603602081101561059757600080fd5b50356114eb565b6104f0600480360360208110156105b457600080fd5b8101906020810181356401000000008111156105cf57600080fd5b8201836020820111156105e157600080fd5b8035906020019184600183028401116401000000008311171561060357600080fd5b91908080601f016020809104026020016040519081016040528093929190818152602001838380828437600092019190915250929550611545945050505050565b61066a6004803603602081101561065a57600080fd5b50356001600160a01b03166116fb565b60408051918252519081900360200190f35b6106996004803603602081101561069257600080fd5b503561186b565b604080516001600160a01b03808b166020808401919091529282018a90526060820189905260808201889052861660a082015284151560c082015283151560e08201528215156101008201526101208082528b51908201528a51909182916101408301918d019080838360005b8381101561071e578181015183820152602001610706565b50505050905090810190601f16801561074b5780820380516001836020036101000a031916815260200191505b509a505050505050505050505060405180910390f35b6106996004803603602081101561077757600080fd5b5035611956565b61021a6004803603604081101561079457600080fd5b506001600160a01b0381351690602001351515611b33565b61031c600480360360208110156107c257600080fd5b50356001600160a01b0316611c38565b61066a600480360360608110156107e857600080fd5b5080359060208101359060400135611ced565b6108216004803603602081101561081157600080fd5b50356001600160a01b0316611eaf565b6040805192835260208301919091528051918290030190f35b61021a6004803603604081101561085057600080fd5b50803590602001356001600160a01b0316612056565b61021a6004803603608081101561087c57600080fd5b6001600160a01b038235811692602081013590911691604082013591908101906080810160608201356401000000008111156108b757600080fd5b8201836020820111156108c957600080fd5b803590602001918460018302840111640100000000831117156108eb57600080fd5b91908080601f016020809104026020016040519081016040528093929190818152602001838380828437600092019190915250929550612129945050505050565b6101da6004803603604081101561094257600080fd5b506001600160a01b0381358116916020013516612187565b6109806004803603602081101561097057600080fd5b50356001600160a01b03166121b5565b6040518080602001866001600160a01b03166001600160a01b0316815260200185815260200184815260200183151515158152602001828103825287818151815260200191508051906020019080838360005b838110156109eb5781810151838201526020016109d3565b50505050905090810190601f168015610a185780820380516001836020036101000a031916815260200191505b50965050505050505060405180910390f35b6001600160e01b03191660009081526003602052604090205460ff1690565b3360009081526001602081905260409091206005015460ff16151514610a6e57600080fd5b600082815260208190526040902060050154600160b01b900460ff161515600114610a9857600080fd5b6001600160a01b03811660009081526002602052604090206005015460ff161515600114610ac557600080fd5b6000828152602081905260409020600501546001600160a01b03828116911614610aee57600080fd5b6000828152602081905260409020600101546001600160a01b03163314610b1457600080fd5b610b1d82612276565b610b2733836122ba565b5050565b6000610b368261231e565b610b715760405162461bcd60e51b815260040180806020018281038252602c815260200180613230602c913960400191505060405180910390fd5b506000908152600560205260409020546001600160a01b031690565b6000610b98826114eb565b9050806001600160a01b0316836001600160a01b03161415610beb5760405162461bcd60e51b81526004018080602001828103825260218152602001806132856021913960400191505060405180910390fd5b806001600160a01b0316610bfd61233b565b6001600160a01b03161480610c1e5750610c1e81610c1961233b565b612187565b610c595760405162461bcd60e51b81526004018080602001828103825260388152602001806131cf6038913960400191505060405180910390fd5b60008281526005602052604080822080546001600160a01b0319166001600160a01b0387811691821790925591518593918516917f8c5be1e5ebec7d5bd14f71427d1e84f3dd0314c0f7b2291e5b200ac8c7c3b92591a4505050565b6060610cbf612f93565b6001600160a01b0383166000908152600260208181526040928390208351815460e0601f60001961010060018516150201909216959095049081018490049093028101840190945260c08401828152909284928491840182828015610d655780601f10610d3a57610100808354040283529160200191610d65565b820191906000526020600020905b815481529060010190602001808311610d4857829003601f168201915b505050505081526020016001820160009054906101000a90046001600160a01b03166001600160a01b03166001600160a01b03168152602001600282015481526020016003820154815260200160048201805480602002602001604051908101604052809291908181526020018280548015610e0057602002820191906000526020600020905b815481526020019060010190808311610dec575b50505091835250506005919091015460ff161515602090910152608001519392505050565b6000610e2f612fd4565b600083815260208181526040918290208251815460026001821615610100026000190190911604601f810184900490930281016101409081019094526101208101838152909391928492849190840182828015610ecd5780601f10610ea257610100808354040283529160200191610ecd565b820191906000526020600020905b815481529060010190602001808311610eb057829003601f168201915b505050918352505060018201546001600160a01b03908116602083015260028301546040830152600383015460608301526004830154608083015260059092015491821660a08083019190915260ff600160a01b84048116151560c0840152600160a81b84048116151560e0840152600160b01b9093049092161515610100909101520151915050919050565b6060600080610f67613020565b336000908152600160208181526040928390208351815460029481161561010002600019011693909304601f8101839004909202830160c090810190945260a0830182815292939092849290918491908401828280156110085780601f10610fdd57610100808354040283529160200191611008565b820191906000526020600020905b815481529060010190602001808311610feb57829003601f168201915b505050918352505060018201546001600160a01b0316602080830191909152600283018054604080518285028101850182528281529401939283018282801561107057602002820191906000526020600020905b81548152602001906001019080831161105c575b50505050508152602001600482018054806020026020016040519081016040528092919081815260200182805480156110c857602002820191906000526020600020905b8154815260200190600101908083116110b4575b50505091835250506005919091015460ff16151560209182015281519082015160809092015190969195509350915050565b61110b61110561233b565b82612340565b6111465760405162461bcd60e51b81526004018080602001828103825260318152602001806132a66031913960400191505060405180910390fd5b6111518383836123e4565b505050565b6060611160613020565b6001600160a01b0383166000908152600160208181526040928390208351815460029481161561010002600019011693909304601f8101839004909202830160c090810190945260a08301828152929390928492909184919084018282801561120a5780601f106111df5761010080835404028352916020019161120a565b820191906000526020600020905b8154815290600101906020018083116111ed57829003601f168201915b505050918352505060018201546001600160a01b0316602080830191909152600283018054604080518285028101850182528281529401939283018282801561127257602002820191906000526020600020905b81548152602001906001019080831161125e575b50505050508152602001600482018054806020026020016040519081016040528092919081815260200182805480156112ca57602002820191906000526020600020905b8154815260200190600101908083116112b6575b50505091835250506005919091015460ff161515602090910152606001519392505050565b61115183838360405180602001604052806000815250612129565b336000908152600160205260408120600501546060919060ff161561132e57600080fd5b3360009081526002602052604090206005015460ff161561134e57600080fd5b6113588333612528565b611360613020565b336000908152600160208181526040928390208351815460029481161561010002600019011693909304601f8101839004909202830160c090810190945260a0830182815292939092849290918491908401828280156114015780601f106113d657610100808354040283529160200191611401565b820191906000526020600020905b8154815290600101906020018083116113e457829003601f168201915b505050918352505060018201546001600160a01b0316602080830191909152600283018054604080518285028101850182528281529401939283018282801561146957602002820191906000526020600020905b815481526020019060010190808311611455575b50505050508152602001600482018054806020026020016040519081016040528092919081815260200182805480156114c157602002820191906000526020600020905b8154815260200190600101908083116114ad575b50505091835250506005919091015460ff1615156020918201528151910151909350915050915091565b6000818152600460205260408120546001600160a01b03168061153f5760405162461bcd60e51b81526004018080602001828103825260298152602001806132076029913960400191505060405180910390fd5b92915050565b336000908152600160205260408120600501546060919060ff161561156957600080fd5b3360009081526002602052604090206005015460ff161561158957600080fd5b61159383336126a5565b61159b612f93565b336000908152600260208181526040928390208351815460e0601f60001961010060018516150201909216959095049081018490049093028101840190945260c084018281529092849284918401828280156116385780601f1061160d57610100808354040283529160200191611638565b820191906000526020600020905b81548152906001019060200180831161161b57829003601f168201915b505050505081526020016001820160009054906101000a90046001600160a01b03166001600160a01b03166001600160a01b031681526020016002820154815260200160038201548152602001600482018054806020026020016040519081016040528092919081815260200182805480156114c157602002820191906000526020600020908154815260200190600101908083116114ad5750505091835250506005919091015460ff1615156020918201528151910151909350915050915091565b6000611705612f93565b6001600160a01b0383166000908152600260208181526040928390208351815460e0601f60001961010060018516150201909216959095049081018490049093028101840190945260c084018281529092849284918401828280156117ab5780601f10611780576101008083540402835291602001916117ab565b820191906000526020600020905b81548152906001019060200180831161178e57829003601f168201915b505050505081526020016001820160009054906101000a90046001600160a01b03166001600160a01b03166001600160a01b0316815260200160028201548152602001600382015481526020016004820180548060200260200160405190810160405280929190818152602001828054801561184657602002820191906000526020600020905b815481526020019060010190808311611832575b50505091835250506005919091015460ff161515602090910152604001519392505050565b6000602081815291815260409081902080548251601f6002600019610100600186161502019093169290920491820185900485028101850190935280835290928391908301828280156118ff5780601f106118d4576101008083540402835291602001916118ff565b820191906000526020600020905b8154815290600101906020018083116118e257829003601f168201915b505050600184015460028501546003860154600487015460059097015495966001600160a01b03938416969295509093509181169060ff600160a01b8204811691600160a81b8104821691600160b01b9091041689565b606060008060008060008060008061196c612fd4565b60008b815260208181526040918290208251815460026001821615610100026000190190911604601f810184900490930281016101409081019094526101208101838152909391928492849190840182828015611a0a5780601f106119df57610100808354040283529160200191611a0a565b820191906000526020600020905b8154815290600101906020018083116119ed57829003601f168201915b505050505081526020016001820160009054906101000a90046001600160a01b03166001600160a01b03166001600160a01b031681526020016002820154815260200160038201548152602001600482015481526020016005820160009054906101000a90046001600160a01b03166001600160a01b03166001600160a01b031681526020016005820160149054906101000a900460ff161515151581526020016005820160159054906101000a900460ff161515151581526020016005820160169054906101000a900460ff1615151515815250509050806000015181602001518260400151836060015184608001518560a001518660c001518760e00151886101000151889850995099509950995099509950995099509950509193959799909294969850565b611b3b61233b565b6001600160a01b0316826001600160a01b03161415611ba1576040805162461bcd60e51b815260206004820152601960248201527f4552433732313a20617070726f766520746f2063616c6c657200000000000000604482015290519081900360640190fd5b8060076000611bae61233b565b6001600160a01b03908116825260208083019390935260409182016000908120918716808252919093529120805460ff191692151592909217909155611bf261233b565b60408051841515815290516001600160a01b0392909216917f17307eab39ab6107e8899845ad3d59bd9653f200f220920489ca2b5937696c319181900360200190a35050565b60016020818152600092835260409283902080548451600294821615610100026000190190911693909304601f8101839004830284018301909452838352928391830182828015611cca5780601f10611c9f57610100808354040283529160200191611cca565b820191906000526020600020905b815481529060010190602001808311611cad57829003601f168201915b50505050600183015460059093015491926001600160a01b03169160ff16905083565b33600090815260016020819052604082206005015460ff16151514611d1157600080fd5b3360009081526001602081815260409283902080548451600294821615610100026000190190911693909304601f81018390048302840183019094528383529260609291849190830182828015611da95780601f10611d7e57610100808354040283529160200191611da9565b820191906000526020600020905b815481529060010190602001808311611d8c57829003601f168201915b50505050509050611db8612fd4565b611dc582338989896127ca565b90506000823389896040516020018080602001856001600160a01b03166001600160a01b03168152602001848152602001838152602001828103825286818151815260200191508051906020019080838360005b83811015611e31578181015183820152602001611e19565b50505050905090810190601f168015611e5e5780820380516001836020036101000a031916815260200191505b5095505050505050604051602081830303815290604052805190602001209050611e88828261282c565b60049093018054600181018255600091825260209091200183905550909150509392505050565b6001600160a01b038116600090815260026020526040812060050154819060ff161515600114611ede57600080fd5b611ee6612f93565b6001600160a01b0384166000908152600260208181526040928390208351815460e0601f60001961010060018516150201909216959095049081018490049093028101840190945260c08401828152909284928491840182828015611f8c5780601f10611f6157610100808354040283529160200191611f8c565b820191906000526020600020905b815481529060010190602001808311611f6f57829003601f168201915b505050505081526020016001820160009054906101000a90046001600160a01b03166001600160a01b03166001600160a01b0316815260200160028201548152602001600382015481526020016004820180548060200260200160405190810160405280929190818152602001828054801561202757602002820191906000526020600020905b815481526020019060010190808311612013575b50505091835250506005919091015460ff16151560209091015260608101516040909101519350915050915091565b3360009081526001602081905260409091206005015460ff1615151461207b57600080fd5b600082815260208190526040902060050154600160b01b900460ff1615156001146120a557600080fd5b6001600160a01b03811660009081526002602052604090206005015460ff1615156001146120d257600080fd5b6000828152602081905260409020600501546001600160a01b031633146120f857600080fd5b6000828152602081905260409020600101546001600160a01b0316331461211e57600080fd5b610b27338284612979565b61213a61213461233b565b83612340565b6121755760405162461bcd60e51b81526004018080602001828103825260318152602001806132a66031913960400191505060405180910390fd5b612181848484846129e8565b50505050565b6001600160a01b03918216600090815260076020908152604080832093909416825291909152205460ff1690565b600260208181526000928352604092839020805484516001821615610100026000190190911693909304601f81018390048302840183019094528383529283918301828280156122465780601f1061221b57610100808354040283529160200191612246565b820191906000526020600020905b81548152906001019060200180831161222957829003601f168201915b5050505060018301546002840154600385015460059095015493946001600160a01b039092169390925060ff1685565b600090815260208181526040808320600501805460ff60a01b1916600160a01b17908190556001600160a01b03168352600291829052909120018054600019019055565b6001600160a01b03821660009081526001602052604081209060048201905b8154811015612317578181815481106122ee57fe5b906000526020600020015484141561230f5761230a8183612a3a565b612317565b6001016122d9565b5050505050565b6000908152600460205260409020546001600160a01b0316151590565b335b90565b600061234b8261231e565b6123865760405162461bcd60e51b815260040180806020018281038252602c8152602001806131a3602c913960400191505060405180910390fd5b6000612391836114eb565b9050806001600160a01b0316846001600160a01b031614806123cc5750836001600160a01b03166123c184610b2b565b6001600160a01b0316145b806123dc57506123dc8185612187565b949350505050565b826001600160a01b03166123f7826114eb565b6001600160a01b03161461243c5760405162461bcd60e51b815260040180806020018281038252602981526020018061325c6029913960400191505060405180910390fd5b6001600160a01b0382166124815760405162461bcd60e51b815260040180806020018281038252602481526020018061317f6024913960400191505060405180910390fd5b61248a81612abe565b6001600160a01b03831660009081526006602052604090206124ab90612afb565b6001600160a01b03821660009081526006602052604090206124cc90612b12565b60008181526004602052604080822080546001600160a01b0319166001600160a01b0386811691821790925591518493918716917fddf252ad1be2c89b69c2b068fc378daa952ba7f163c4a11628f55a4df523b3ef91a4505050565b612530613020565b8281526001600160a01b038216602080830182905260016080840181905260009283528152604090912082518051849361256e92849291019061305a565b506020828101516001830180546001600160a01b0319166001600160a01b03909216919091179055604083015180516125ad92600285019201906130d8565b50606082015180516125c99160048401916020909101906130d8565b5060808201518160050160006101000a81548160ff0219169083151502179055509050507f9657aed99bbb89a1b6110de849abb7a97a791307fcfdd65ecc4612709bed69eb83836040518080602001836001600160a01b03166001600160a01b03168152602001828103825284818151815260200191508051906020019080838360005b8381101561266557818101518382015260200161264d565b50505050905090810190601f1680156126925780820380516001836020036101000a031916815260200191505b50935050505060405180910390a1505050565b6126ad612f93565b8281526001600160a01b0382166020808301829052600160a084015260009182526002815260409091208251805184936126eb92849291019061305a565b506020828101516001830180546001600160a01b0319166001600160a01b0390921691909117905560408301516002830155606083015160038301556080830151805161273e92600485019201906130d8565b5060a091909101516005909101805460ff19169115159190911790558051602080830151604080516001600160a01b0383168185015281815284519181019190915283517fa9f30653d8449c84b5b92a43e719ff26da48571661b3093c672cec7f62df63619493829160608301918601908083836000831561266557818101518382015260200161264d565b6127d2612fd4565b6127da612fd4565b505060408051610120810182529586526001600160a01b039490941660208601819052938501929092526060840152608083015260a0820152600060c0820181905260e0820152600161010082015290565b600081815260208190526040902060050154600160b01b900460ff161561285257600080fd5b60008181526020818152604090912083518051859361287592849291019061305a565b506020828101516001830180546001600160a01b039283166001600160a01b0319918216179091556040808601516002860155606086015160038601556080860151600486015560a08601516005909501805460c088015160e0890151610100909901511515600160b01b027fffffffffffffffffff00ffffffffffffffffffffffffffffffffffffffffffff991515600160a81b0260ff60a81b19921515600160a01b0260ff60a01b199a9098169390961692909217979097169490941795909516919091179490941617909155815183815291517f1dedf216956bdae37b60f016d477f28ae821556f7b41fcdce47184ab025cddb89281900390910190a15050565b6001600160a01b03831660009081526001602081905260409091206005015460ff16151514156129b3576129ae838383612b1b565b611151565b6001600160a01b03821660009081526001602081905260409091206005015460ff16151514156101ae576129ae838383612b9d565b6129f38484846123e4565b6129ff84848484612bd2565b6121815760405162461bcd60e51b815260040180806020018281038252603281526020018061314d6032913960400191505060405180910390fd5b80548210612a4757610b27565b815b815460001901811015612a9057818160010181548110612a6557fe5b9060005260206000200154828281548110612a7c57fe5b600091825260209091200155600101612a49565b50805481906000198101908110612aa357fe5b60009182526020822001558054611151826000198301613112565b6000818152600560205260409020546001600160a01b031615612af857600081815260056020526040902080546001600160a01b03191690555b50565b8054612b0e90600163ffffffff612e2216565b9055565b80546001019055565b6000818152602081815260408083206001600160a01b03909516808452600280845291842060018085526005909701805460ff60a81b196001600160a01b031990911690931792909216600160a81b17909155600481018054808801825590855292909320909101929092559081018054830190556003018054909101905550565b60008181526020819052604090206005810180546001600160a01b0319166001600160a01b0385161790556121818483612e6b565b6000612be6846001600160a01b0316612ec3565b612bf2575060016123dc565b600060606001600160a01b038616630a85bd0160e11b612c1061233b565b89888860405160240180856001600160a01b03166001600160a01b03168152602001846001600160a01b03166001600160a01b0316815260200183815260200180602001828103825283818151815260200191508051906020019080838360005b83811015612c89578181015183820152602001612c71565b50505050905090810190601f168015612cb65780820380516001836020036101000a031916815260200191505b5060408051601f198184030181529181526020820180517bffffffffffffffffffffffffffffffffffffffffffffffffffffffff166001600160e01b0319909a16999099178952518151919890975087965094509250829150849050835b60208310612d335780518252601f199092019160209182019101612d14565b6001836020036101000a0380198251168184511680821785525050505050509050019150506000604051808303816000865af19150503d8060008114612d95576040519150601f19603f3d011682016040523d82523d6000602084013e612d9a565b606091505b509150915081612deb57805115612db45780518082602001fd5b60405162461bcd60e51b815260040180806020018281038252603281526020018061314d6032913960400191505060405180910390fd5b6000818060200190516020811015612e0257600080fd5b50516001600160e01b031916630a85bd0160e11b1493506123dc92505050565b6000612e6483836040518060400160405280601e81526020017f536166654d6174683a207375627472616374696f6e206f766572666c6f770000815250612efc565b9392505050565b6001600160a01b03821660009081526002602052604081209060048201905b815481101561231757818181548110612e9f57fe5b9060005260206000200154841415612ebb5761230a8183612a3a565b600101612e8a565b6000813f7fc5d2460186f7233c927e7db2dcc703c0e500b653ca82273b7bfad8045d85a4708181148015906123dc575050151592915050565b60008184841115612f8b5760405162461bcd60e51b81526004018080602001828103825283818151815260200191508051906020019080838360005b83811015612f50578181015183820152602001612f38565b50505050905090810190601f168015612f7d5780820380516001836020036101000a031916815260200191505b509250505060405180910390fd5b505050900390565b6040518060c001604052806060815260200160006001600160a01b031681526020016000815260200160008152602001606081526020016000151581525090565b6040805161012081018252606080825260006020830181905292820183905281018290526080810182905260a0810182905260c0810182905260e0810182905261010081019190915290565b6040518060a001604052806060815260200160006001600160a01b0316815260200160608152602001606081526020016000151581525090565b828054600181600116156101000203166002900490600052602060002090601f016020900481019282601f1061309b57805160ff19168380011785556130c8565b828001600101855582156130c8579182015b828111156130c85782518255916020019190600101906130ad565b506130d4929150613132565b5090565b8280548282559060005260206000209081019282156130c857916020028201828111156130c85782518255916020019190600101906130ad565b815481835581811115611151576000838152602090206111519181019083015b61233d91905b808211156130d4576000815560010161313856fe4552433732313a207472616e7366657220746f206e6f6e20455243373231526563656976657220696d706c656d656e7465724552433732313a207472616e7366657220746f20746865207a65726f20616464726573734552433732313a206f70657261746f7220717565727920666f72206e6f6e6578697374656e7420746f6b656e4552433732313a20617070726f76652063616c6c6572206973206e6f74206f776e6572206e6f7220617070726f76656420666f7220616c6c4552433732313a206f776e657220717565727920666f72206e6f6e6578697374656e7420746f6b656e4552433732313a20617070726f76656420717565727920666f72206e6f6e6578697374656e7420746f6b656e4552433732313a207472616e73666572206f6620746f6b656e2074686174206973206e6f74206f776e4552433732313a20617070726f76616c20746f2063757272656e74206f776e65724552433732313a207472616e736665722063616c6c6572206973206e6f74206f776e6572206e6f7220617070726f766564a265627a7a72315820da4b3875cfc0e17d2e90716995da5891ab3d480ea50d188db2d5548f8ae11c7964736f6c63430005110032",
  "source": "pragma solidity >=0.5.0 <0.6.0;\r\n\r\nimport \"@openzeppelin/contracts/token/ERC721/ERC721.sol\"; \r\nimport \"./Factory.sol\";\r\n\r\ncontract ReservationTokenFunctions is Factory, ERC721 {\r\n\r\n    function balanceOf(address _userAddress) public view returns (uint256) {\r\n        User memory user = addressToUser[_userAddress];\r\n        uint256 outstandingReservations = user.outstandingReservations;\r\n        return outstandingReservations;\r\n    }\r\n\r\n    function ownerOf(bytes32 _tokenId) public view returns (address) {\r\n        ReservationToken memory token = hashToToken[_tokenId];\r\n        address ownerAddress = token.ownerAddress;\r\n        return ownerAddress;\r\n    }\r\n\r\n    function _removeFromList(uint index, bytes32[] storage _array)  private {\r\n        if (index >= _array.length) return;\r\n\r\n        for (uint i = index; i<_array.length-1; i++){\r\n            _array[i] = _array[i+1];\r\n        }\r\n        delete _array[_array.length-1];\r\n        _array.length--;\r\n    }\r\n\r\n\r\n    function _removeReservationFromRestaurant(address _restaurantAddress, bytes32 _reservationHash) private {\r\n        Restaurant storage restaurant = addressToRestaurant[_restaurantAddress];\r\n        bytes32[] storage reservationList = restaurant.reservationHashs;\r\n        for (uint i=0;i<reservationList.length;i++) {\r\n            if (_reservationHash ==reservationList[i]) {\r\n                _removeFromList(i, reservationList);\r\n                break;\r\n            }\r\n        }\r\n    }\r\n    \r\n    function _removeReservationFromUser(address _userAddress, bytes32 _reservationHash) private {\r\n        User storage user = addressToUser[_userAddress];\r\n        bytes32[] storage reservationList = user.reservationHashs;\r\n        for (uint i=0;i<reservationList.length;i++) {\r\n            if (_reservationHash ==reservationList[i]) {\r\n                _removeFromList(i, reservationList);\r\n                break;\r\n            }\r\n        }\r\n        \r\n    }\r\n\r\n    function _giveUserToken(address _restaurantAddress, address _userAddress, bytes32 _tokenHash) private {\r\n        ReservationToken storage token = hashToToken[_tokenHash];\r\n        User storage user = addressToUser[_userAddress];\r\n        Restaurant storage restaurant = addressToRestaurant[token.restaurantAddress];\r\n\r\n        token.ownerAddress = _userAddress;\r\n        token.accepted = true;\r\n\r\n        user.reservationHashs.push(_tokenHash);\r\n        user.outstandingReservations++;\r\n        user.totalReservations++;\r\n    }\r\n\r\n    function _removeUserToken(address _user, address _restaurantAddress, bytes32 _tokenHash) private {\r\n        ReservationToken storage token = hashToToken[_tokenHash];\r\n        token.ownerAddress = _restaurantAddress;\r\n        _removeReservationFromUser(_user, _tokenHash);\r\n    }\r\n\r\n    function _transfer(address _from, address _to, bytes32 _tokenHash) private {\r\n        if (addressToRestaurant[_from].exist == true) {\r\n            _giveUserToken(_from, _to, _tokenHash);\r\n        }\r\n        else if (addressToRestaurant[_to].exist == true) {\r\n            _removeUserToken( _from, _to, _tokenHash);\r\n        } \r\n        else {\r\n            revert();\r\n        }\r\n    }\r\n\r\n    function _generateProofOfVisitation(bytes32 _reservationHash) private {\r\n        ReservationToken storage token = hashToToken[_reservationHash];\r\n        token.visited = true;\r\n        User storage user = addressToUser[token.ownerAddress];\r\n        user.outstandingReservations --;\r\n    }\r\n\r\n    function _handleTokenSubmitReview(bytes32 _reservationHash, address _userAddress) internal {\r\n        ReservationToken memory token = hashToToken[_reservationHash];\r\n        _transfer(_userAddress, token.restaurantAddress, _reservationHash);\r\n    }\r\n\r\n    function acceptReservation(bytes32 _reservationHash, address _userAddress) public onlyRestaurant() {\r\n        require(hashToToken[_reservationHash].exist == true); //check that reservation token exist\r\n        require(addressToUser[_userAddress].exist == true); //check that user exist\r\n        require(hashToToken[_reservationHash].ownerAddress == msg.sender); //check that token is owned by restaurant\r\n        require(hashToToken[_reservationHash].restaurantAddress == msg.sender); //ensure that the token is for this restaurant\r\n        _transfer(msg.sender, _userAddress, _reservationHash);\r\n    }\r\n    \r\n    function visitedRestaurant(bytes32 _reservationHash, address _userAddress) public onlyRestaurant() {\r\n        require(hashToToken[_reservationHash].exist == true); //check that reservation token exist\r\n        require(addressToUser[_userAddress].exist == true); //check that user exist\r\n        require(hashToToken[_reservationHash].ownerAddress == _userAddress); //check that user currently owns token\r\n        require(hashToToken[_reservationHash].restaurantAddress == msg.sender); //check that calling restaurant created this token\r\n        _generateProofOfVisitation(_reservationHash);\r\n        _removeReservationFromRestaurant(msg.sender, _reservationHash);\r\n    }\r\n\r\n    function getUserScore(address _userAddress) public view returns(uint, uint) {\r\n        require(addressToUser[_userAddress].exist == true);\r\n        User memory user = addressToUser[_userAddress];\r\n        uint total = user.totalReservations;\r\n        uint outstanding = user.outstandingReservations;\r\n        return (outstanding, total);\r\n    }\r\n\r\n    function testPrintTokenOwnership(bytes32 _reservationHash) public view returns (address) {\r\n        ReservationToken memory token = hashToToken[_reservationHash];\r\n        return token.ownerAddress;\r\n    }\r\n    \r\n    function testPrintOutstandingReservations(address _userAddress) public view returns (uint) {\r\n        User memory user = addressToUser[_userAddress];\r\n        return user.outstandingReservations;\r\n    }\r\n}",
  "sourcePath": "C:\\Users\\sydel\\Desktop\\blobchain\\testing-truffle\\contracts\\TokenFunctionality.sol",
  "compiler": {
    "name": "solc",
    "version": "0.5.17+commit.d19bba13.Emscripten.clang"
  },
  "schemaVersion": "3.3.3",
  "updatedAt": "2021-08-04T17:31:06.765Z",
  "networkType": "ethereum",
  "devdoc": {
    "methods": {
      "approve(address,uint256)": {
        "details": "Approves another address to transfer the given token ID The zero address indicates there is no approved address. There can only be one approved address per token at a given time. Can only be called by the token owner or an approved operator.",
        "params": {
          "to": "address to be approved for the given token ID",
          "tokenId": "uint256 ID of the token to be approved"
        }
      },
      "getApproved(uint256)": {
        "details": "Gets the approved address for a token ID, or zero if no address set Reverts if the token ID does not exist.",
        "params": {
          "tokenId": "uint256 ID of the token to query the approval of"
        },
        "return": "address currently approved for the given token ID"
      },
      "isApprovedForAll(address,address)": {
        "details": "Tells whether an operator is approved by a given owner.",
        "params": {
          "operator": "operator address which you want to query the approval of",
          "owner": "owner address which you want to query the approval of"
        },
        "return": "bool whether the given operator is approved by the given owner"
      },
      "ownerOf(uint256)": {
        "details": "Gets the owner of the specified token ID.",
        "params": {
          "tokenId": "uint256 ID of the token to query the owner of"
        },
        "return": "address currently marked as the owner of the given token ID"
      },
      "safeTransferFrom(address,address,uint256)": {
        "details": "Safely transfers the ownership of a given token ID to another address If the target address is a contract, it must implement {IERC721Receiver-onERC721Received}, which is called upon a safe transfer, and return the magic value `bytes4(keccak256(\"onERC721Received(address,address,uint256,bytes)\"))`; otherwise, the transfer is reverted. Requires the msg.sender to be the owner, approved, or operator",
        "params": {
          "from": "current owner of the token",
          "to": "address to receive the ownership of the given token ID",
          "tokenId": "uint256 ID of the token to be transferred"
        }
      },
      "safeTransferFrom(address,address,uint256,bytes)": {
        "details": "Safely transfers the ownership of a given token ID to another address If the target address is a contract, it must implement {IERC721Receiver-onERC721Received}, which is called upon a safe transfer, and return the magic value `bytes4(keccak256(\"onERC721Received(address,address,uint256,bytes)\"))`; otherwise, the transfer is reverted. Requires the _msgSender() to be the owner, approved, or operator",
        "params": {
          "_data": "bytes data to send along with a safe transfer check",
          "from": "current owner of the token",
          "to": "address to receive the ownership of the given token ID",
          "tokenId": "uint256 ID of the token to be transferred"
        }
      },
      "setApprovalForAll(address,bool)": {
        "details": "Sets or unsets the approval of a given operator An operator is allowed to transfer all tokens of the sender on their behalf.",
        "params": {
          "approved": "representing the status of the approval to be set",
          "to": "operator address to set the approval"
        }
      },
      "supportsInterface(bytes4)": {
        "details": "See {IERC165-supportsInterface}.     * Time complexity O(1), guaranteed to always use less than 30 000 gas."
      },
      "transferFrom(address,address,uint256)": {
        "details": "Transfers the ownership of a given token ID to another address. Usage of this method is discouraged, use {safeTransferFrom} whenever possible. Requires the msg.sender to be the owner, approved, or operator.",
        "params": {
          "from": "current owner of the token",
          "to": "address to receive the ownership of the given token ID",
          "tokenId": "uint256 ID of the token to be transferred"
        }
      }
    }
  },
  "userdoc": {
    "methods": {}
  }
}