{
  "contractName": "ReviewFunctions",
  "abi": [
    {
      "anonymous": false,
      "inputs": [
        {
          "indexed": true,
          "internalType": "address",
          "name": "owner",
          "type": "address"
        },
        {
          "indexed": true,
          "internalType": "address",
          "name": "approved",
          "type": "address"
        },
        {
          "indexed": true,
          "internalType": "uint256",
          "name": "tokenId",
          "type": "uint256"
        }
      ],
      "name": "Approval",
      "type": "event"
    },
    {
      "anonymous": false,
      "inputs": [
        {
          "indexed": true,
          "internalType": "address",
          "name": "owner",
          "type": "address"
        },
        {
          "indexed": true,
          "internalType": "address",
          "name": "operator",
          "type": "address"
        },
        {
          "indexed": false,
          "internalType": "bool",
          "name": "approved",
          "type": "bool"
        }
      ],
      "name": "ApprovalForAll",
      "type": "event"
    },
    {
      "anonymous": false,
      "inputs": [
        {
          "indexed": false,
          "internalType": "string",
          "name": "restaurantName",
          "type": "string"
        },
        {
          "indexed": false,
          "internalType": "address",
          "name": "senderAddress",
          "type": "address"
        }
      ],
      "name": "RestaurantAdded",
      "type": "event"
    },
    {
      "anonymous": false,
      "inputs": [
        {
          "indexed": false,
          "internalType": "uint256",
          "name": "outstanding",
          "type": "uint256"
        },
        {
          "indexed": false,
          "internalType": "uint256",
          "name": "total",
          "type": "uint256"
        }
      ],
      "name": "ReturnScore",
      "type": "event"
    },
    {
      "anonymous": false,
      "inputs": [
        {
          "indexed": false,
          "internalType": "address",
          "name": "userAddress",
          "type": "address"
        },
        {
          "indexed": false,
          "internalType": "address",
          "name": "restaurantAddress",
          "type": "address"
        },
        {
          "indexed": false,
          "internalType": "string",
          "name": "reviewContent",
          "type": "string"
        }
      ],
      "name": "ReviewSubmitted",
      "type": "event"
    },
    {
      "anonymous": false,
      "inputs": [
        {
          "indexed": false,
          "internalType": "bytes32",
          "name": "tokenHash",
          "type": "bytes32"
        }
      ],
      "name": "TokenAdded",
      "type": "event"
    },
    {
      "anonymous": false,
      "inputs": [
        {
          "indexed": true,
          "internalType": "address",
          "name": "from",
          "type": "address"
        },
        {
          "indexed": true,
          "internalType": "address",
          "name": "to",
          "type": "address"
        },
        {
          "indexed": true,
          "internalType": "uint256",
          "name": "tokenId",
          "type": "uint256"
        }
      ],
      "name": "Transfer",
      "type": "event"
    },
    {
      "anonymous": false,
      "inputs": [
        {
          "indexed": false,
          "internalType": "string",
          "name": "userName",
          "type": "string"
        },
        {
          "indexed": false,
          "internalType": "address",
          "name": "userAddress",
          "type": "address"
        }
      ],
      "name": "UserAdded",
      "type": "event"
    },
    {
      "constant": false,
      "inputs": [
        {
          "internalType": "bytes32",
          "name": "_reservationHash",
          "type": "bytes32"
        },
        {
          "internalType": "address",
          "name": "_userAddress",
          "type": "address"
        }
      ],
      "name": "acceptReservation",
      "outputs": [],
      "payable": false,
      "stateMutability": "nonpayable",
      "type": "function"
    },
    {
      "constant": true,
      "inputs": [
        {
          "internalType": "address",
          "name": "",
          "type": "address"
        }
      ],
      "name": "addressToRestaurant",
      "outputs": [
        {
          "internalType": "string",
          "name": "restaurantName",
          "type": "string"
        },
        {
          "internalType": "address",
          "name": "restaurantAddress",
          "type": "address"
        },
        {
          "internalType": "bool",
          "name": "exist",
          "type": "bool"
        }
      ],
      "payable": false,
      "stateMutability": "view",
      "type": "function"
    },
    {
      "constant": true,
      "inputs": [
        {
          "internalType": "address",
          "name": "",
          "type": "address"
        }
      ],
      "name": "addressToUser",
      "outputs": [
        {
          "internalType": "string",
          "name": "userName",
          "type": "string"
        },
        {
          "internalType": "address",
          "name": "userAddress",
          "type": "address"
        },
        {
          "internalType": "uint256",
          "name": "outstandingReservations",
          "type": "uint256"
        },
        {
          "internalType": "uint256",
          "name": "totalReservations",
          "type": "uint256"
        },
        {
          "internalType": "bool",
          "name": "exist",
          "type": "bool"
        }
      ],
      "payable": false,
      "stateMutability": "view",
      "type": "function"
    },
    {
      "constant": false,
      "inputs": [
        {
          "internalType": "address",
          "name": "to",
          "type": "address"
        },
        {
          "internalType": "uint256",
          "name": "tokenId",
          "type": "uint256"
        }
      ],
      "name": "approve",
      "outputs": [],
      "payable": false,
      "stateMutability": "nonpayable",
      "type": "function"
    },
    {
      "constant": true,
      "inputs": [
        {
          "internalType": "address",
          "name": "_userAddress",
          "type": "address"
        }
      ],
      "name": "balanceOf",
      "outputs": [
        {
          "internalType": "uint256",
          "name": "",
          "type": "uint256"
        }
      ],
      "payable": false,
      "stateMutability": "view",
      "type": "function"
    },
    {
      "constant": false,
      "inputs": [
        {
          "internalType": "uint256",
          "name": "_dateTime",
          "type": "uint256"
        },
        {
          "internalType": "uint256",
          "name": "_tableNo",
          "type": "uint256"
        },
        {
          "internalType": "uint256",
          "name": "_pax",
          "type": "uint256"
        }
      ],
      "name": "createReservation",
      "outputs": [
        {
          "internalType": "bytes32",
          "name": "",
          "type": "bytes32"
        }
      ],
      "payable": false,
      "stateMutability": "nonpayable",
      "type": "function"
    },
    {
      "constant": true,
      "inputs": [
        {
          "internalType": "uint256",
          "name": "tokenId",
          "type": "uint256"
        }
      ],
      "name": "getApproved",
      "outputs": [
        {
          "internalType": "address",
          "name": "",
          "type": "address"
        }
      ],
      "payable": false,
      "stateMutability": "view",
      "type": "function"
    },
    {
      "constant": true,
      "inputs": [
        {
          "internalType": "address",
          "name": "_restaurantAddress",
          "type": "address"
        }
      ],
      "name": "getRestaurantReservationsAll",
      "outputs": [
        {
          "internalType": "bytes32[]",
          "name": "",
          "type": "bytes32[]"
        }
      ],
      "payable": false,
      "stateMutability": "view",
      "type": "function"
    },
    {
      "constant": true,
      "inputs": [
        {
          "internalType": "address",
          "name": "_userAddress",
          "type": "address"
        }
      ],
      "name": "getUserReservationsAll",
      "outputs": [
        {
          "internalType": "bytes32[]",
          "name": "",
          "type": "bytes32[]"
        }
      ],
      "payable": false,
      "stateMutability": "view",
      "type": "function"
    },
    {
      "constant": true,
      "inputs": [
        {
          "internalType": "address",
          "name": "_userAddress",
          "type": "address"
        }
      ],
      "name": "getUserScore",
      "outputs": [
        {
          "internalType": "uint256",
          "name": "",
          "type": "uint256"
        },
        {
          "internalType": "uint256",
          "name": "",
          "type": "uint256"
        }
      ],
      "payable": false,
      "stateMutability": "view",
      "type": "function"
    },
    {
      "constant": true,
      "inputs": [
        {
          "internalType": "bytes32",
          "name": "",
          "type": "bytes32"
        }
      ],
      "name": "hashToToken",
      "outputs": [
        {
          "internalType": "string",
          "name": "restaurantName",
          "type": "string"
        },
        {
          "internalType": "address",
          "name": "restaurantAddress",
          "type": "address"
        },
        {
          "internalType": "uint256",
          "name": "dateTime",
          "type": "uint256"
        },
        {
          "internalType": "uint256",
          "name": "tableNo",
          "type": "uint256"
        },
        {
          "internalType": "uint256",
          "name": "pax",
          "type": "uint256"
        },
        {
          "internalType": "address",
          "name": "ownerAddress",
          "type": "address"
        },
        {
          "internalType": "bool",
          "name": "visited",
          "type": "bool"
        },
        {
          "internalType": "bool",
          "name": "accepted",
          "type": "bool"
        },
        {
          "internalType": "bool",
          "name": "exist",
          "type": "bool"
        }
      ],
      "payable": false,
      "stateMutability": "view",
      "type": "function"
    },
    {
      "constant": true,
      "inputs": [
        {
          "internalType": "address",
          "name": "owner",
          "type": "address"
        },
        {
          "internalType": "address",
          "name": "operator",
          "type": "address"
        }
      ],
      "name": "isApprovedForAll",
      "outputs": [
        {
          "internalType": "bool",
          "name": "",
          "type": "bool"
        }
      ],
      "payable": false,
      "stateMutability": "view",
      "type": "function"
    },
    {
      "constant": true,
      "inputs": [
        {
          "internalType": "uint256",
          "name": "tokenId",
          "type": "uint256"
        }
      ],
      "name": "ownerOf",
      "outputs": [
        {
          "internalType": "address",
          "name": "",
          "type": "address"
        }
      ],
      "payable": false,
      "stateMutability": "view",
      "type": "function"
    },
    {
      "constant": true,
      "inputs": [
        {
          "internalType": "bytes32",
          "name": "_tokenId",
          "type": "bytes32"
        }
      ],
      "name": "ownerOf",
      "outputs": [
        {
          "internalType": "address",
          "name": "",
          "type": "address"
        }
      ],
      "payable": false,
      "stateMutability": "view",
      "type": "function"
    },
    {
      "constant": false,
      "inputs": [
        {
          "internalType": "string",
          "name": "_restaurantName",
          "type": "string"
        }
      ],
      "name": "registerRestaurant",
      "outputs": [
        {
          "internalType": "string",
          "name": "",
          "type": "string"
        },
        {
          "internalType": "address",
          "name": "",
          "type": "address"
        }
      ],
      "payable": false,
      "stateMutability": "nonpayable",
      "type": "function"
    },
    {
      "constant": false,
      "inputs": [
        {
          "internalType": "string",
          "name": "_userName",
          "type": "string"
        }
      ],
      "name": "registerUser",
      "outputs": [
        {
          "internalType": "string",
          "name": "",
          "type": "string"
        },
        {
          "internalType": "address",
          "name": "",
          "type": "address"
        }
      ],
      "payable": false,
      "stateMutability": "nonpayable",
      "type": "function"
    },
    {
      "constant": false,
      "inputs": [
        {
          "internalType": "address",
          "name": "from",
          "type": "address"
        },
        {
          "internalType": "address",
          "name": "to",
          "type": "address"
        },
        {
          "internalType": "uint256",
          "name": "tokenId",
          "type": "uint256"
        }
      ],
      "name": "safeTransferFrom",
      "outputs": [],
      "payable": false,
      "stateMutability": "nonpayable",
      "type": "function"
    },
    {
      "constant": false,
      "inputs": [
        {
          "internalType": "address",
          "name": "from",
          "type": "address"
        },
        {
          "internalType": "address",
          "name": "to",
          "type": "address"
        },
        {
          "internalType": "uint256",
          "name": "tokenId",
          "type": "uint256"
        },
        {
          "internalType": "bytes",
          "name": "_data",
          "type": "bytes"
        }
      ],
      "name": "safeTransferFrom",
      "outputs": [],
      "payable": false,
      "stateMutability": "nonpayable",
      "type": "function"
    },
    {
      "constant": false,
      "inputs": [
        {
          "internalType": "address",
          "name": "to",
          "type": "address"
        },
        {
          "internalType": "bool",
          "name": "approved",
          "type": "bool"
        }
      ],
      "name": "setApprovalForAll",
      "outputs": [],
      "payable": false,
      "stateMutability": "nonpayable",
      "type": "function"
    },
    {
      "constant": true,
      "inputs": [
        {
          "internalType": "bytes4",
          "name": "interfaceId",
          "type": "bytes4"
        }
      ],
      "name": "supportsInterface",
      "outputs": [
        {
          "internalType": "bool",
          "name": "",
          "type": "bool"
        }
      ],
      "payable": false,
      "stateMutability": "view",
      "type": "function"
    },
    {
      "constant": true,
      "inputs": [
        {
          "internalType": "address",
          "name": "_userAddress",
          "type": "address"
        }
      ],
      "name": "testPrintOutstandingReservations",
      "outputs": [
        {
          "internalType": "uint256",
          "name": "",
          "type": "uint256"
        }
      ],
      "payable": false,
      "stateMutability": "view",
      "type": "function"
    },
    {
      "constant": true,
      "inputs": [
        {
          "internalType": "bytes32",
          "name": "_reservationHash",
          "type": "bytes32"
        }
      ],
      "name": "testPrintTokenOwnership",
      "outputs": [
        {
          "internalType": "address",
          "name": "",
          "type": "address"
        }
      ],
      "payable": false,
      "stateMutability": "view",
      "type": "function"
    },
    {
      "constant": true,
      "inputs": [
        {
          "internalType": "bytes32",
          "name": "_tokenHash",
          "type": "bytes32"
        }
      ],
      "name": "testRetrieveReservation",
      "outputs": [
        {
          "internalType": "string",
          "name": "",
          "type": "string"
        },
        {
          "internalType": "address",
          "name": "",
          "type": "address"
        },
        {
          "internalType": "uint256",
          "name": "",
          "type": "uint256"
        },
        {
          "internalType": "uint256",
          "name": "",
          "type": "uint256"
        },
        {
          "internalType": "uint256",
          "name": "",
          "type": "uint256"
        },
        {
          "internalType": "address",
          "name": "",
          "type": "address"
        },
        {
          "internalType": "bool",
          "name": "",
          "type": "bool"
        },
        {
          "internalType": "bool",
          "name": "",
          "type": "bool"
        },
        {
          "internalType": "bool",
          "name": "",
          "type": "bool"
        }
      ],
      "payable": false,
      "stateMutability": "view",
      "type": "function"
    },
    {
      "constant": true,
      "inputs": [],
      "name": "testRetrieveRestaurant",
      "outputs": [
        {
          "internalType": "string",
          "name": "",
          "type": "string"
        },
        {
          "internalType": "address",
          "name": "",
          "type": "address"
        },
        {
          "internalType": "bool",
          "name": "",
          "type": "bool"
        }
      ],
      "payable": false,
      "stateMutability": "view",
      "type": "function"
    },
    {
      "constant": false,
      "inputs": [
        {
          "internalType": "address",
          "name": "from",
          "type": "address"
        },
        {
          "internalType": "address",
          "name": "to",
          "type": "address"
        },
        {
          "internalType": "uint256",
          "name": "tokenId",
          "type": "uint256"
        }
      ],
      "name": "transferFrom",
      "outputs": [],
      "payable": false,
      "stateMutability": "nonpayable",
      "type": "function"
    },
    {
      "constant": false,
      "inputs": [
        {
          "internalType": "bytes32",
          "name": "_reservationHash",
          "type": "bytes32"
        },
        {
          "internalType": "address",
          "name": "_userAddress",
          "type": "address"
        }
      ],
      "name": "visitedRestaurant",
      "outputs": [],
      "payable": false,
      "stateMutability": "nonpayable",
      "type": "function"
    },
    {
      "constant": false,
      "inputs": [
        {
          "internalType": "string",
          "name": "_reviewContent",
          "type": "string"
        },
        {
          "internalType": "string",
          "name": "_writer",
          "type": "string"
        },
        {
          "internalType": "bytes32",
          "name": "_reservationHash",
          "type": "bytes32"
        }
      ],
      "name": "postReview",
      "outputs": [],
      "payable": false,
      "stateMutability": "nonpayable",
      "type": "function"
    },
    {
      "constant": true,
      "inputs": [
        {
          "internalType": "address",
          "name": "_restaurantAddress",
          "type": "address"
        },
        {
          "internalType": "uint256",
          "name": "_retrievalIndex",
          "type": "uint256"
        }
      ],
      "name": "retrieveReview",
      "outputs": [
        {
          "internalType": "string",
          "name": "",
          "type": "string"
        },
        {
          "internalType": "string",
          "name": "",
          "type": "string"
        }
      ],
      "payable": false,
      "stateMutability": "view",
      "type": "function"
    }
  ],
  "bytecode": "0x60806040526200001f6301ffc9a760e01b6001600160e01b036200004016565b6200003a6380ac58cd60e01b6001600160e01b036200004016565b620000c5565b6001600160e01b03198082161415620000a0576040805162461bcd60e51b815260206004820152601c60248201527f4552433136353a20696e76616c696420696e7465726661636520696400000000604482015290519081900360640190fd5b6001600160e01b0319166000908152600360205260409020805460ff19166001179055565b613cc080620000d56000396000f3fe608060405234801561001057600080fd5b50600436106101c45760003560e01c806375c6ef74116100f9578063b34e0c4711610097578063d2d6f51911610071578063d2d6f51914610a71578063e985e9c514610b3b578063edf5388614610b69578063f5f479a81461065a576101c4565b8063b34e0c4714610940578063b6e8cdf91461097f578063b88d4fde146109ab576101c4565b8063994f9eb9116100d3578063994f9eb914610794578063a22cb465146108c3578063a49b6036146108f1578063a97606e814610917576101c4565b806375c6ef74146106925780637dd564111461030d5780638a74628514610777576101c4565b806323b872dd116101665780635aa6c7dd116101405780635aa6c7dd146104605780636352211e14610597578063704f1b94146105b457806370a082311461065a576101c4565b806323b872dd146103ce5780633682317b1461040457806342842e0e1461042a576101c4565b8063095ea7b3116101a2578063095ea7b31461026b5780630aa0e0f1146102975780631f6453811461030d5780631f7e98341461032a576101c4565b806301ffc9a7146101c957806307a7324d14610204578063081812fc14610232575b600080fd5b6101f0600480360360208110156101df57600080fd5b50356001600160e01b031916610c39565b604080519115158252519081900360200190f35b6102306004803603604081101561021a57600080fd5b50803590602001356001600160a01b0316610c58565b005b61024f6004803603602081101561024857600080fd5b5035610d3a565b604080516001600160a01b039092168252519081900360200190f35b6102306004803603604081101561028157600080fd5b506001600160a01b038135169060200135610d9c565b6102bd600480360360208110156102ad57600080fd5b50356001600160a01b0316610ec4565b60408051602080825283518183015283519192839290830191858101910280838360005b838110156102f95781810151838201526020016102e1565b505050509050019250505060405180910390f35b61024f6004803603602081101561032357600080fd5b5035611034565b610332611169565b6040518080602001846001600160a01b03166001600160a01b0316815260200183151515158152602001828103825285818151815260200191508051906020019080838360005b83811015610391578181015183820152602001610379565b50505050905090810190601f1680156103be5780820380516001836020036101000a031916815260200191505b5094505050505060405180910390f35b610230600480360360608110156103e457600080fd5b506001600160a01b03813581169160208101359091169060400135611309565b6102bd6004803603602081101561041a57600080fd5b50356001600160a01b0316611365565b6102306004803603606081101561044057600080fd5b506001600160a01b038135811691602081013590911690604001356114fe565b6105066004803603602081101561047657600080fd5b81019060208101813564010000000081111561049157600080fd5b8201836020820111156104a357600080fd5b803590602001918460018302840111640100000000831117156104c557600080fd5b91908080601f016020809104026020016040519081016040528093929190818152602001838380828437600092019190915250929550611519945050505050565b6040518080602001836001600160a01b03166001600160a01b03168152602001828103825284818151815260200191508051906020019080838360005b8381101561055b578181015183820152602001610543565b50505050905090810190601f1680156105885780820380516001836020036101000a031916815260200191505b50935050505060405180910390f35b61024f600480360360208110156105ad57600080fd5b50356116fa565b610506600480360360208110156105ca57600080fd5b8101906020810181356401000000008111156105e557600080fd5b8201836020820111156105f757600080fd5b8035906020019184600183028401116401000000008311171561061957600080fd5b91908080601f016020809104026020016040519081016040528093929190818152602001838380828437600092019190915250929550611754945050505050565b6106806004803603602081101561067057600080fd5b50356001600160a01b031661190a565b60408051918252519081900360200190f35b6106af600480360360208110156106a857600080fd5b5035611a7a565b604080516001600160a01b03808b166020808401919091529282018a90526060820189905260808201889052861660a082015284151560c082015283151560e08201528215156101008201526101208082528b51908201528a51909182916101408301918d019080838360005b8381101561073457818101518382015260200161071c565b50505050905090810190601f1680156107615780820380516001836020036101000a031916815260200191505b509a505050505050505050505060405180910390f35b6106af6004803603602081101561078d57600080fd5b5035611b65565b610230600480360360608110156107aa57600080fd5b8101906020810181356401000000008111156107c557600080fd5b8201836020820111156107d757600080fd5b803590602001918460018302840111640100000000831117156107f957600080fd5b91908080601f016020809104026020016040519081016040528093929190818152602001838380828437600092019190915250929594936020810193503591505064010000000081111561084c57600080fd5b82018360208201111561085e57600080fd5b8035906020019184600183028401116401000000008311171561088057600080fd5b91908080601f0160208091040260200160405190810160405280939291908181526020018383808284376000920191909152509295505091359250611d42915050565b610230600480360360408110156108d957600080fd5b506001600160a01b0381351690602001351515611f89565b6103326004803603602081101561090757600080fd5b50356001600160a01b031661208e565b6106806004803603606081101561092d57600080fd5b5080359060208101359060400135612143565b6109666004803603602081101561095657600080fd5b50356001600160a01b0316612305565b6040805192835260208301919091528051918290030190f35b6102306004803603604081101561099557600080fd5b50803590602001356001600160a01b03166124ac565b610230600480360360808110156109c157600080fd5b6001600160a01b038235811692602081013590911691604082013591908101906080810160608201356401000000008111156109fc57600080fd5b820183602082011115610a0e57600080fd5b80359060200191846001830284011164010000000083111715610a3057600080fd5b91908080601f01602080910402602001604051908101604052809392919081815260200183838082843760009201919091525092955061257f945050505050565b610a9d60048036036040811015610a8757600080fd5b506001600160a01b0381351690602001356125dd565b604051808060200180602001838103835285818151815260200191508051906020019080838360005b83811015610ade578181015183820152602001610ac6565b50505050905090810190601f168015610b0b5780820380516001836020036101000a031916815260200191505b50838103825284518152845160209182019186019080838360008315610391578181015183820152602001610379565b6101f060048036036040811015610b5157600080fd5b506001600160a01b038135811691602001351661279e565b610b8f60048036036020811015610b7f57600080fd5b50356001600160a01b03166127cc565b6040518080602001866001600160a01b03166001600160a01b0316815260200185815260200184815260200183151515158152602001828103825287818151815260200191508051906020019080838360005b83811015610bfa578181015183820152602001610be2565b50505050905090810190601f168015610c275780820380516001836020036101000a031916815260200191505b50965050505050505060405180910390f35b6001600160e01b03191660009081526003602052604090205460ff1690565b3360009081526001602081905260409091206005015460ff16151514610c7d57600080fd5b600082815260208190526040902060050154600160b01b900460ff161515600114610ca757600080fd5b6001600160a01b03811660009081526002602052604090206005015460ff161515600114610cd457600080fd5b6000828152602081905260409020600501546001600160a01b03828116911614610cfd57600080fd5b6000828152602081905260409020600101546001600160a01b03163314610d2357600080fd5b610d2c8261288d565b610d3633836128d1565b5050565b6000610d4582612935565b610d805760405162461bcd60e51b815260040180806020018281038252602c815260200180613be5602c913960400191505060405180910390fd5b506000908152600560205260409020546001600160a01b031690565b6000610da7826116fa565b9050806001600160a01b0316836001600160a01b03161415610dfa5760405162461bcd60e51b8152600401808060200182810382526021815260200180613c3a6021913960400191505060405180910390fd5b806001600160a01b0316610e0c612952565b6001600160a01b03161480610e2d5750610e2d81610e28612952565b61279e565b610e685760405162461bcd60e51b8152600401808060200182810382526038815260200180613b846038913960400191505060405180910390fd5b60008281526005602052604080822080546001600160a01b0319166001600160a01b0387811691821790925591518593918516917f8c5be1e5ebec7d5bd14f71427d1e84f3dd0314c0f7b2291e5b200ac8c7c3b92591a4505050565b6060610ece61392e565b6001600160a01b0383166000908152600260208181526040928390208351815460e0601f60001961010060018516150201909216959095049081018490049093028101840190945260c08401828152909284928491840182828015610f745780601f10610f4957610100808354040283529160200191610f74565b820191906000526020600020905b815481529060010190602001808311610f5757829003601f168201915b505050505081526020016001820160009054906101000a90046001600160a01b03166001600160a01b03166001600160a01b0316815260200160028201548152602001600382015481526020016004820180548060200260200160405190810160405280929190818152602001828054801561100f57602002820191906000526020600020905b815481526020019060010190808311610ffb575b50505091835250506005919091015460ff161515602090910152608001519392505050565b600061103e61396f565b600083815260208181526040918290208251815460026001821615610100026000190190911604601f8101849004909302810161014090810190945261012081018381529093919284928491908401828280156110dc5780601f106110b1576101008083540402835291602001916110dc565b820191906000526020600020905b8154815290600101906020018083116110bf57829003601f168201915b505050918352505060018201546001600160a01b03908116602083015260028301546040830152600383015460608301526004830154608083015260059092015491821660a08083019190915260ff600160a01b84048116151560c0840152600160a81b84048116151560e0840152600160b01b9093049092161515610100909101520151915050919050565b60606000806111766139bb565b336000908152600160208181526040928390208351815460029481161561010002600019011693909304601f8101839004909202830160c090810190945260a0830182815292939092849290918491908401828280156112175780601f106111ec57610100808354040283529160200191611217565b820191906000526020600020905b8154815290600101906020018083116111fa57829003601f168201915b505050918352505060018201546001600160a01b0316602080830191909152600283018054604080518285028101850182528281529401939283018282801561127f57602002820191906000526020600020905b81548152602001906001019080831161126b575b50505050508152602001600482018054806020026020016040519081016040528092919081815260200182805480156112d757602002820191906000526020600020905b8154815260200190600101908083116112c3575b50505091835250506005919091015460ff16151560209182015281519082015160809092015190969195509350915050565b61131a611314612952565b82612957565b6113555760405162461bcd60e51b8152600401808060200182810382526031815260200180613c5b6031913960400191505060405180910390fd5b6113608383836129fb565b505050565b606061136f6139bb565b6001600160a01b0383166000908152600160208181526040928390208351815460029481161561010002600019011693909304601f8101839004909202830160c090810190945260a0830182815292939092849290918491908401828280156114195780601f106113ee57610100808354040283529160200191611419565b820191906000526020600020905b8154815290600101906020018083116113fc57829003601f168201915b505050918352505060018201546001600160a01b0316602080830191909152600283018054604080518285028101850182528281529401939283018282801561148157602002820191906000526020600020905b81548152602001906001019080831161146d575b50505050508152602001600482018054806020026020016040519081016040528092919081815260200182805480156114d957602002820191906000526020600020905b8154815260200190600101908083116114c5575b50505091835250506005919091015460ff161515602090910152606001519392505050565b6113608383836040518060200160405280600081525061257f565b336000908152600160205260408120600501546060919060ff161561153d57600080fd5b3360009081526002602052604090206005015460ff161561155d57600080fd5b6115678333612b3f565b61156f6139bb565b336000908152600160208181526040928390208351815460029481161561010002600019011693909304601f8101839004909202830160c090810190945260a0830182815292939092849290918491908401828280156116105780601f106115e557610100808354040283529160200191611610565b820191906000526020600020905b8154815290600101906020018083116115f357829003601f168201915b505050918352505060018201546001600160a01b0316602080830191909152600283018054604080518285028101850182528281529401939283018282801561167857602002820191906000526020600020905b815481526020019060010190808311611664575b50505050508152602001600482018054806020026020016040519081016040528092919081815260200182805480156116d057602002820191906000526020600020905b8154815260200190600101908083116116bc575b50505091835250506005919091015460ff1615156020918201528151910151909350915050915091565b6000818152600460205260408120546001600160a01b03168061174e5760405162461bcd60e51b8152600401808060200182810382526029815260200180613bbc6029913960400191505060405180910390fd5b92915050565b336000908152600160205260408120600501546060919060ff161561177857600080fd5b3360009081526002602052604090206005015460ff161561179857600080fd5b6117a28333612cbc565b6117aa61392e565b336000908152600260208181526040928390208351815460e0601f60001961010060018516150201909216959095049081018490049093028101840190945260c084018281529092849284918401828280156118475780601f1061181c57610100808354040283529160200191611847565b820191906000526020600020905b81548152906001019060200180831161182a57829003601f168201915b505050505081526020016001820160009054906101000a90046001600160a01b03166001600160a01b03166001600160a01b031681526020016002820154815260200160038201548152602001600482018054806020026020016040519081016040528092919081815260200182805480156116d057602002820191906000526020600020908154815260200190600101908083116116bc5750505091835250506005919091015460ff1615156020918201528151910151909350915050915091565b600061191461392e565b6001600160a01b0383166000908152600260208181526040928390208351815460e0601f60001961010060018516150201909216959095049081018490049093028101840190945260c084018281529092849284918401828280156119ba5780601f1061198f576101008083540402835291602001916119ba565b820191906000526020600020905b81548152906001019060200180831161199d57829003601f168201915b505050505081526020016001820160009054906101000a90046001600160a01b03166001600160a01b03166001600160a01b03168152602001600282015481526020016003820154815260200160048201805480602002602001604051908101604052809291908181526020018280548015611a5557602002820191906000526020600020905b815481526020019060010190808311611a41575b50505091835250506005919091015460ff161515602090910152604001519392505050565b6000602081815291815260409081902080548251601f600260001961010060018616150201909316929092049182018590048502810185019093528083529092839190830182828015611b0e5780601f10611ae357610100808354040283529160200191611b0e565b820191906000526020600020905b815481529060010190602001808311611af157829003601f168201915b505050600184015460028501546003860154600487015460059097015495966001600160a01b03938416969295509093509181169060ff600160a01b8204811691600160a81b8104821691600160b01b9091041689565b6060600080600080600080600080611b7b61396f565b60008b815260208181526040918290208251815460026001821615610100026000190190911604601f810184900490930281016101409081019094526101208101838152909391928492849190840182828015611c195780601f10611bee57610100808354040283529160200191611c19565b820191906000526020600020905b815481529060010190602001808311611bfc57829003601f168201915b505050505081526020016001820160009054906101000a90046001600160a01b03166001600160a01b03166001600160a01b031681526020016002820154815260200160038201548152602001600482015481526020016005820160009054906101000a90046001600160a01b03166001600160a01b03166001600160a01b031681526020016005820160149054906101000a900460ff161515151581526020016005820160159054906101000a900460ff161515151581526020016005820160169054906101000a900460ff1615151515815250509050806000015181602001518260400151836060015184608001518560a001518660c001518760e00151886101000151889850995099509950995099509950995099509950509193959799909294969850565b3360009081526002602052604090206005015460ff161515600114611d6657600080fd5b611d6f81612de1565b611d776139f5565b611d818484612f94565b9050611d8b61396f565b600083815260208181526040918290208251815460026001821615610100026000190190911604601f810184900490930281016101409081019094526101208101838152909391928492849190840182828015611e295780601f10611dfe57610100808354040283529160200191611e29565b820191906000526020600020905b815481529060010190602001808311611e0c57829003601f168201915b505050918352505060018201546001600160a01b0390811660208084019190915260028401546040840152600384015460608401526004840154608084015260059093015490811660a083015260ff600160a01b82048116151560c0840152600160a81b82048116151560e0840152600160b01b90910416151561010090910152810151909150611ebb908390612fbb565b33611ec6848261302c565b602080830151845160408051338082526001600160a01b03851682870152606092820183815284519383019390935283517fefb81e563a5d587364b9d44675a12fd0c143d97b451890eee0497d47e7a80e3096919594939160808401919085019080838360005b83811015611f45578181015183820152602001611f2d565b50505050905090810190601f168015611f725780820380516001836020036101000a031916815260200191505b5094505050505060405180910390a1505050505050565b611f91612952565b6001600160a01b0316826001600160a01b03161415611ff7576040805162461bcd60e51b815260206004820152601960248201527f4552433732313a20617070726f766520746f2063616c6c657200000000000000604482015290519081900360640190fd5b8060076000612004612952565b6001600160a01b03908116825260208083019390935260409182016000908120918716808252919093529120805460ff191692151592909217909155612048612952565b60408051841515815290516001600160a01b0392909216917f17307eab39ab6107e8899845ad3d59bd9653f200f220920489ca2b5937696c319181900360200190a35050565b60016020818152600092835260409283902080548451600294821615610100026000190190911693909304601f81018390048302840183019094528383529283918301828280156121205780601f106120f557610100808354040283529160200191612120565b820191906000526020600020905b81548152906001019060200180831161210357829003601f168201915b50505050600183015460059093015491926001600160a01b03169160ff16905083565b33600090815260016020819052604082206005015460ff1615151461216757600080fd5b3360009081526001602081815260409283902080548451600294821615610100026000190190911693909304601f810183900483028401830190945283835292606092918491908301828280156121ff5780601f106121d4576101008083540402835291602001916121ff565b820191906000526020600020905b8154815290600101906020018083116121e257829003601f168201915b5050505050905061220e61396f565b61221b8233898989613165565b90506000823389896040516020018080602001856001600160a01b03166001600160a01b03168152602001848152602001838152602001828103825286818151815260200191508051906020019080838360005b8381101561228757818101518382015260200161226f565b50505050905090810190601f1680156122b45780820380516001836020036101000a031916815260200191505b50955050505050506040516020818303038152906040528051906020012090506122de82826131c7565b60049093018054600181018255600091825260209091200183905550909150509392505050565b6001600160a01b038116600090815260026020526040812060050154819060ff16151560011461233457600080fd5b61233c61392e565b6001600160a01b0384166000908152600260208181526040928390208351815460e0601f60001961010060018516150201909216959095049081018490049093028101840190945260c084018281529092849284918401828280156123e25780601f106123b7576101008083540402835291602001916123e2565b820191906000526020600020905b8154815290600101906020018083116123c557829003601f168201915b505050505081526020016001820160009054906101000a90046001600160a01b03166001600160a01b03166001600160a01b0316815260200160028201548152602001600382015481526020016004820180548060200260200160405190810160405280929190818152602001828054801561247d57602002820191906000526020600020905b815481526020019060010190808311612469575b50505091835250506005919091015460ff16151560209091015260608101516040909101519350915050915091565b3360009081526001602081905260409091206005015460ff161515146124d157600080fd5b600082815260208190526040902060050154600160b01b900460ff1615156001146124fb57600080fd5b6001600160a01b03811660009081526002602052604090206005015460ff16151560011461252857600080fd5b6000828152602081905260409020600501546001600160a01b0316331461254e57600080fd5b6000828152602081905260409020600101546001600160a01b0316331461257457600080fd5b610d36338284613314565b61259061258a612952565b83612957565b6125cb5760405162461bcd60e51b8152600401808060200182810382526031815260200180613c5b6031913960400191505060405180910390fd5b6125d784848484613383565b50505050565b6001600160a01b038216600090815260016020819052604090912060050154606091829160ff1615151461261057600080fd5b6001600160a01b038416600090815260016020526040902060028101546000198582030161263c6139f5565b60008281526003850160209081526040918290208251815460026001821615610100026000190190911604601f81018490049093028101606090810185529381018381529093919284928491908401828280156126da5780601f106126af576101008083540402835291602001916126da565b820191906000526020600020905b8154815290600101906020018083116126bd57829003601f168201915b50505050508152602001600182018054600181600116156101000203166002900480601f01602080910402602001604051908101604052809291908181526020018280546001816001161561010002031660029004801561277c5780601f106127515761010080835404028352916020019161277c565b820191906000526020600020905b81548152906001019060200180831161275f57829003601f168201915b5050509190925250508151602090920151919a91995090975050505050505050565b6001600160a01b03918216600090815260076020908152604080832093909416825291909152205460ff1690565b600260208181526000928352604092839020805484516001821615610100026000190190911693909304601f810183900483028401830190945283835292839183018282801561285d5780601f106128325761010080835404028352916020019161285d565b820191906000526020600020905b81548152906001019060200180831161284057829003601f168201915b5050505060018301546002840154600385015460059095015493946001600160a01b039092169390925060ff1685565b600090815260208181526040808320600501805460ff60a01b1916600160a01b17908190556001600160a01b03168352600291829052909120018054600019019055565b6001600160a01b03821660009081526001602052604081209060048201905b815481101561292e5781818154811061290557fe5b90600052602060002001548414156129265761292181836133d5565b61292e565b6001016128f0565b5050505050565b6000908152600460205260409020546001600160a01b0316151590565b335b90565b600061296282612935565b61299d5760405162461bcd60e51b815260040180806020018281038252602c815260200180613b58602c913960400191505060405180910390fd5b60006129a8836116fa565b9050806001600160a01b0316846001600160a01b031614806129e35750836001600160a01b03166129d884610d3a565b6001600160a01b0316145b806129f357506129f3818561279e565b949350505050565b826001600160a01b0316612a0e826116fa565b6001600160a01b031614612a535760405162461bcd60e51b8152600401808060200182810382526029815260200180613c116029913960400191505060405180910390fd5b6001600160a01b038216612a985760405162461bcd60e51b8152600401808060200182810382526024815260200180613b346024913960400191505060405180910390fd5b612aa181613459565b6001600160a01b0383166000908152600660205260409020612ac290613496565b6001600160a01b0382166000908152600660205260409020612ae3906134ad565b60008181526004602052604080822080546001600160a01b0319166001600160a01b0386811691821790925591518493918716917fddf252ad1be2c89b69c2b068fc378daa952ba7f163c4a11628f55a4df523b3ef91a4505050565b612b476139bb565b8281526001600160a01b0382166020808301829052600160808401819052600092835281526040909120825180518493612b85928492910190613a0f565b506020828101516001830180546001600160a01b0319166001600160a01b0390921691909117905560408301518051612bc49260028501920190613a8d565b5060608201518051612be0916004840191602090910190613a8d565b5060808201518160050160006101000a81548160ff0219169083151502179055509050507f9657aed99bbb89a1b6110de849abb7a97a791307fcfdd65ecc4612709bed69eb83836040518080602001836001600160a01b03166001600160a01b03168152602001828103825284818151815260200191508051906020019080838360005b83811015612c7c578181015183820152602001612c64565b50505050905090810190601f168015612ca95780820380516001836020036101000a031916815260200191505b50935050505060405180910390a1505050565b612cc461392e565b8281526001600160a01b0382166020808301829052600160a08401526000918252600281526040909120825180518493612d02928492910190613a0f565b506020828101516001830180546001600160a01b0319166001600160a01b03909216919091179055604083015160028301556060830151600383015560808301518051612d559260048501920190613a8d565b5060a091909101516005909101805460ff19169115159190911790558051602080830151604080516001600160a01b0383168185015281815284519181019190915283517fa9f30653d8449c84b5b92a43e719ff26da48571661b3093c672cec7f62df636194938291606083019186019080838360008315612c7c578181015183820152602001612c64565b600081815260208190526040902060050154600160b01b900460ff161515600114612e0b57600080fd5b612e1361396f565b600082815260208181526040918290208251815460026001821615610100026000190190911604601f810184900490930281016101409081019094526101208101838152909391928492849190840182828015612eb15780601f10612e8657610100808354040283529160200191612eb1565b820191906000526020600020905b815481529060010190602001808311612e9457829003601f168201915b50505091835250506001828101546001600160a01b03908116602084015260028401546040840152600384015460608401526004840154608084015260059093015492831660a083015260ff600160a01b84048116151560c080850191909152600160a81b85048216151560e0850152600160b01b909404161515610100909201919091529082015191925090151514612f4a57600080fd5b60a08101516001600160a01b03163314612f6357600080fd5b6020808201516001600160a01b03166000908152600191829052604090206005015460ff16151514610d3657600080fd5b612f9c6139f5565b612fa46139f5565b505060408051808201909152918252602082015290565b6001600160a01b0381166000908152600160208181526040808420600281018054948501815585528285208401859055838552600381018352932085518051879361300a928492910190613a0f565b5060208281015180516130239260018501920190613a0f565b50505050505050565b61303461396f565b600083815260208181526040918290208251815460026001821615610100026000190190911604601f8101849004909302810161014090810190945261012081018381529093919284928491908401828280156130d25780601f106130a7576101008083540402835291602001916130d2565b820191906000526020600020905b8154815290600101906020018083116130b557829003601f168201915b505050918352505060018201546001600160a01b0390811660208084019190915260028401546040840152600384015460608401526004840154608084015260059093015490811660a083015260ff600160a01b82048116151560c0840152600160a81b82048116151560e0840152600160b01b9091041615156101009091015281015190915061136090839085613314565b61316d61396f565b61317561396f565b505060408051610120810182529586526001600160a01b039490941660208601819052938501929092526060840152608083015260a0820152600060c0820181905260e0820152600161010082015290565b600081815260208190526040902060050154600160b01b900460ff16156131ed57600080fd5b600081815260208181526040909120835180518593613210928492910190613a0f565b506020828101516001830180546001600160a01b039283166001600160a01b0319918216179091556040808601516002860155606086015160038601556080860151600486015560a08601516005909501805460c088015160e0890151610100909901511515600160b01b027fffffffffffffffffff00ffffffffffffffffffffffffffffffffffffffffffff991515600160a81b0260ff60a81b19921515600160a01b0260ff60a01b199a9098169390961692909217979097169490941795909516919091179490941617909155815183815291517f1dedf216956bdae37b60f016d477f28ae821556f7b41fcdce47184ab025cddb89281900390910190a15050565b6001600160a01b03831660009081526001602081905260409091206005015460ff161515141561334e576133498383836134b6565b611360565b6001600160a01b03821660009081526001602081905260409091206005015460ff16151514156101c457613349838383613538565b61338e8484846129fb565b61339a8484848461356d565b6125d75760405162461bcd60e51b8152600401808060200182810382526032815260200180613b026032913960400191505060405180910390fd5b805482106133e257610d36565b815b81546000190181101561342b5781816001018154811061340057fe5b906000526020600020015482828154811061341757fe5b6000918252602090912001556001016133e4565b5080548190600019810190811061343e57fe5b60009182526020822001558054611360826000198301613ac7565b6000818152600560205260409020546001600160a01b03161561349357600081815260056020526040902080546001600160a01b03191690555b50565b80546134a990600163ffffffff6137bd16565b9055565b80546001019055565b6000818152602081815260408083206001600160a01b03909516808452600280845291842060018085526005909701805460ff60a81b196001600160a01b031990911690931792909216600160a81b17909155600481018054808801825590855292909320909101929092559081018054830190556003018054909101905550565b60008181526020819052604090206005810180546001600160a01b0319166001600160a01b0385161790556125d78483613806565b6000613581846001600160a01b031661385e565b61358d575060016129f3565b600060606001600160a01b038616630a85bd0160e11b6135ab612952565b89888860405160240180856001600160a01b03166001600160a01b03168152602001846001600160a01b03166001600160a01b0316815260200183815260200180602001828103825283818151815260200191508051906020019080838360005b8381101561362457818101518382015260200161360c565b50505050905090810190601f1680156136515780820380516001836020036101000a031916815260200191505b5060408051601f198184030181529181526020820180517bffffffffffffffffffffffffffffffffffffffffffffffffffffffff166001600160e01b0319909a16999099178952518151919890975087965094509250829150849050835b602083106136ce5780518252601f1990920191602091820191016136af565b6001836020036101000a0380198251168184511680821785525050505050509050019150506000604051808303816000865af19150503d8060008114613730576040519150601f19603f3d011682016040523d82523d6000602084013e613735565b606091505b5091509150816137865780511561374f5780518082602001fd5b60405162461bcd60e51b8152600401808060200182810382526032815260200180613b026032913960400191505060405180910390fd5b600081806020019051602081101561379d57600080fd5b50516001600160e01b031916630a85bd0160e11b1493506129f392505050565b60006137ff83836040518060400160405280601e81526020017f536166654d6174683a207375627472616374696f6e206f766572666c6f770000815250613897565b9392505050565b6001600160a01b03821660009081526002602052604081209060048201905b815481101561292e5781818154811061383a57fe5b90600052602060002001548414156138565761292181836133d5565b600101613825565b6000813f7fc5d2460186f7233c927e7db2dcc703c0e500b653ca82273b7bfad8045d85a4708181148015906129f3575050151592915050565b600081848411156139265760405162461bcd60e51b81526004018080602001828103825283818151815260200191508051906020019080838360005b838110156138eb5781810151838201526020016138d3565b50505050905090810190601f1680156139185780820380516001836020036101000a031916815260200191505b509250505060405180910390fd5b505050900390565b6040518060c001604052806060815260200160006001600160a01b031681526020016000815260200160008152602001606081526020016000151581525090565b6040805161012081018252606080825260006020830181905292820183905281018290526080810182905260a0810182905260c0810182905260e0810182905261010081019190915290565b6040518060a001604052806060815260200160006001600160a01b0316815260200160608152602001606081526020016000151581525090565b604051806040016040528060608152602001606081525090565b828054600181600116156101000203166002900490600052602060002090601f016020900481019282601f10613a5057805160ff1916838001178555613a7d565b82800160010185558215613a7d579182015b82811115613a7d578251825591602001919060010190613a62565b50613a89929150613ae7565b5090565b828054828255906000526020600020908101928215613a7d5791602002820182811115613a7d578251825591602001919060010190613a62565b815481835581811115611360576000838152602090206113609181019083015b61295491905b80821115613a895760008155600101613aed56fe4552433732313a207472616e7366657220746f206e6f6e20455243373231526563656976657220696d706c656d656e7465724552433732313a207472616e7366657220746f20746865207a65726f20616464726573734552433732313a206f70657261746f7220717565727920666f72206e6f6e6578697374656e7420746f6b656e4552433732313a20617070726f76652063616c6c6572206973206e6f74206f776e6572206e6f7220617070726f76656420666f7220616c6c4552433732313a206f776e657220717565727920666f72206e6f6e6578697374656e7420746f6b656e4552433732313a20617070726f76656420717565727920666f72206e6f6e6578697374656e7420746f6b656e4552433732313a207472616e73666572206f6620746f6b656e2074686174206973206e6f74206f776e4552433732313a20617070726f76616c20746f2063757272656e74206f776e65724552433732313a207472616e736665722063616c6c6572206973206e6f74206f776e6572206e6f7220617070726f766564a265627a7a72315820665800dd25c0118e6e1f321f4b4aa4f2f3c5281eebfe0301a249e6cd51cf469264736f6c63430005110032",
  "source": "pragma solidity >=0.5.0 <0.6.0;\r\nimport \"./TokenFunctionality.sol\";\r\n\r\ncontract ReviewFunctions is ReservationTokenFunctions {\r\n\r\n    function _createReview (string memory _reviewContent, string memory _writer) private pure returns (Review memory) {\r\n        Review memory review = Review(_reviewContent, _writer);\r\n        return review;\r\n    }\r\n\r\n    function _addReviewToRestaurant(Review memory _review, address _restAddress) private {\r\n        Restaurant storage restaurant = addressToRestaurant[_restAddress];\r\n        uint reviewIndex = restaurant.reviewsList.push(0) -1;\r\n        restaurant.keyToReview[reviewIndex] = _review;\r\n\r\n    }\r\n\r\n    function _checkUserProof(bytes32 _reservationHash) private view {\r\n        require(hashToToken[_reservationHash].exist == true);\r\n        ReservationToken memory token = hashToToken[_reservationHash];\r\n        require(token.visited == true);\r\n        require(token.ownerAddress == msg.sender);\r\n        require(addressToRestaurant[token.restaurantAddress].exist == true);\r\n    }\r\n\r\n    function postReview(string memory _reviewContent, string memory _writer, bytes32 _reservationHash) public onlyUser {\r\n        _checkUserProof(_reservationHash);\r\n        Review memory review = _createReview(_reviewContent, _writer);\r\n        ReservationToken memory token = hashToToken[_reservationHash];\r\n        _addReviewToRestaurant(review, token.restaurantAddress);\r\n        address userAddress = msg.sender;\r\n        _handleTokenSubmitReview(_reservationHash, userAddress);\r\n        emit ReviewSubmitted(msg.sender, token.restaurantAddress, review.reviewContent);\r\n    }\r\n\r\n    function retrieveReview(address _restaurantAddress, uint _retrievalIndex) public view returns (string memory, string memory) {\r\n        require(addressToRestaurant[_restaurantAddress].exist == true);\r\n        Restaurant storage restaurant = addressToRestaurant[_restaurantAddress];\r\n        uint reviewLength = restaurant.reviewsList.length;\r\n        uint reviewIndex = reviewLength - _retrievalIndex -1;\r\n        require(reviewIndex >=0);\r\n        Review memory review = restaurant.keyToReview[reviewIndex];\r\n        return (review.reviewContent, review.writer);\r\n    }\r\n\r\n}",
  "sourcePath": "C:/Users/sydel/Desktop/blobchain/testing-truffle/contracts/ReviewFunctionality.sol",
  "compiler": {
    "name": "solc",
    "version": "0.5.17+commit.d19bba13.Emscripten.clang"
  },
  "schemaVersion": "3.3.3",
  "updatedAt": "2021-08-04T17:31:06.753Z",
  "networkType": "ethereum",
  "devdoc": {
    "methods": {
      "approve(address,uint256)": {
        "details": "Approves another address to transfer the given token ID The zero address indicates there is no approved address. There can only be one approved address per token at a given time. Can only be called by the token owner or an approved operator.",
        "params": {
          "to": "address to be approved for the given token ID",
          "tokenId": "uint256 ID of the token to be approved"
        }
      },
      "getApproved(uint256)": {
        "details": "Gets the approved address for a token ID, or zero if no address set Reverts if the token ID does not exist.",
        "params": {
          "tokenId": "uint256 ID of the token to query the approval of"
        },
        "return": "address currently approved for the given token ID"
      },
      "isApprovedForAll(address,address)": {
        "details": "Tells whether an operator is approved by a given owner.",
        "params": {
          "operator": "operator address which you want to query the approval of",
          "owner": "owner address which you want to query the approval of"
        },
        "return": "bool whether the given operator is approved by the given owner"
      },
      "ownerOf(uint256)": {
        "details": "Gets the owner of the specified token ID.",
        "params": {
          "tokenId": "uint256 ID of the token to query the owner of"
        },
        "return": "address currently marked as the owner of the given token ID"
      },
      "safeTransferFrom(address,address,uint256)": {
        "details": "Safely transfers the ownership of a given token ID to another address If the target address is a contract, it must implement {IERC721Receiver-onERC721Received}, which is called upon a safe transfer, and return the magic value `bytes4(keccak256(\"onERC721Received(address,address,uint256,bytes)\"))`; otherwise, the transfer is reverted. Requires the msg.sender to be the owner, approved, or operator",
        "params": {
          "from": "current owner of the token",
          "to": "address to receive the ownership of the given token ID",
          "tokenId": "uint256 ID of the token to be transferred"
        }
      },
      "safeTransferFrom(address,address,uint256,bytes)": {
        "details": "Safely transfers the ownership of a given token ID to another address If the target address is a contract, it must implement {IERC721Receiver-onERC721Received}, which is called upon a safe transfer, and return the magic value `bytes4(keccak256(\"onERC721Received(address,address,uint256,bytes)\"))`; otherwise, the transfer is reverted. Requires the _msgSender() to be the owner, approved, or operator",
        "params": {
          "_data": "bytes data to send along with a safe transfer check",
          "from": "current owner of the token",
          "to": "address to receive the ownership of the given token ID",
          "tokenId": "uint256 ID of the token to be transferred"
        }
      },
      "setApprovalForAll(address,bool)": {
        "details": "Sets or unsets the approval of a given operator An operator is allowed to transfer all tokens of the sender on their behalf.",
        "params": {
          "approved": "representing the status of the approval to be set",
          "to": "operator address to set the approval"
        }
      },
      "supportsInterface(bytes4)": {
        "details": "See {IERC165-supportsInterface}.     * Time complexity O(1), guaranteed to always use less than 30 000 gas."
      },
      "transferFrom(address,address,uint256)": {
        "details": "Transfers the ownership of a given token ID to another address. Usage of this method is discouraged, use {safeTransferFrom} whenever possible. Requires the msg.sender to be the owner, approved, or operator.",
        "params": {
          "from": "current owner of the token",
          "to": "address to receive the ownership of the given token ID",
          "tokenId": "uint256 ID of the token to be transferred"
        }
      }
    }
  },
  "userdoc": {
    "methods": {}
  }
}